:020000040800F2
:100000003005002001010008B1230008351D00085B
:1000100045220008390C00080535000800000000E2
:100020000000000000000000000000005D2B000840
:100030003D0C000800000000892A0008792B000808
:100040001B0100081B0100081B0100081B01000820
:100050001B0100081B0100081B0100081B01000810
:100060001B0100081B0100081B0100081B01000800
:100070001B0100081B0100081B0100081B010008F0
:100080001B0100081B0100081B0100081B010008E0
:100090001B0100081B0100081B0100081B010008D0
:1000A0001B0100081B0100081B0100081B010008C0
:1000B000AD2C0008D52C0008F92C00081B01000805
:1000C0001B0100081B0100081B0100081B010008A0
:1000D0001B010008DD3200081B0100081B0100089D
:1000E000410C00081B0100081B010008DFF80CD0C0
:1000F00000F0EAFC00480047DD430008300500201E
:100100000648804706480047FEE7FEE7FEE7FEE7B1
:10011000FEE7FEE7FEE7FEE7FEE7FEE77D2B0008D1
:10012000ED0000082DE9F0410024061B254671F181
:10013000000605DA01240027D0EB070067EB010178
:10014000161E73F1000605DA0027D2EB070201251F
:1001500067EB030300F042FB86460E4617469C46BB
:10016000AC4204D00025D0EB050E65EB010624B1AE
:100170000020D2EB000760EB030C704631463A4694
:100180006346BDE8F08130B504460020034600E038
:100190005B1C934203D2E05CCD5C401BF8D030BDC9
:1001A000F0B480EA0102D40F4200B2EB410F02D258
:1001B0000246084611464A0042D0C30DDDB2C1F3E3
:1001C000C752AD1A202D35DAC1F3160141F40002F1
:1001D00004B15242C5F1200602FA06F12A41104448
:1001E000B3EBD05F23D0C4B1012DA0EBC35009DC29
:1001F000F0BC4FF0004202EAC352DBB200F500004F
:1002000000F057BB400000F1807000EBC350A0F13C
:10021000807040EAD170490009E0490841EAC071A4
:10022000A0EBC35000F50000400800EBC350F0BC49
:1002300000F036BB6142012202EB4101001BF6E7F0
:10024000F0BC704781F00041AAE780F00040A7E7CA
:1002500080EA010210B502F00043400022D04A00BB
:100260001FD0010E01EB1261C0F35600C2F356021B
:1002700040F4000042F40002A0FB022000047F3999
:10028000140400D0401C50EA124001D44000491E22
:10029000C2B20C0604EBD010401C4008802A02D0E9
:1002A00003E0002010BD20F00100002900DA00204A
:1002B000184310BD30B480EA010202F0004530F06E
:1002C000004221F0004013D090B1C30DD40DC2F311
:1002D0001601C0F31600E41A41F4000140F40002D4
:1002E0007D34914201D3641C00E04900002C02DA05
:1002F00030BC002070474FF400000023914201D32E
:10030000891A034340084FEA4101F7D151B19142A4
:1003100002D14FF0004105E002D24FF0010101E0AF
:100320006FF0010103EBC450284430BC00F0B8BAB0
:100330002DE9FE4F804681EA0300C00F0C46009075
:1003400021F0004123F00045B8EB0200A94105D29D
:100350004046214690461C460B46024623F000408C
:10036000104347D0270DC7F30A00C3F30A51029088
:10037000401A019040286BDAC3F3130040F4801B4D
:100380000098924620B10023D2EB030A63EB0B0BDB
:1003900001985946C0F14002504600F050FA064616
:1003A0000D4650465946019A00F068FA10EB0800D5
:1003B0006141002487EA115284EAE7731A4340D06E
:1003C000009A62B3019A012A4FEA075215DC001B1A
:1003D00061EB02014FF0004202EA0752CDE9004210
:1003E000001C41F5801132462B4600F09FFA03B005
:1003F000BDE8F08F40462146F9E7001B61EB0201A2
:10040000001C41F5801300185B412018A2F500176D
:1004100047EB030140EAD570B6196D4111E06D0854
:100420004FEA360645EAC0754FEA0752001B61EBFA
:100430000201001C41F5801149084FEA3000001903
:10044000514132462B4603B0BDE8F04F00F05FBA91
:100450000098012240000023D0EB020263EBE0731E
:10046000009821464FEAE074B8EB000061EB04010C
:10047000E9E783F000435BE781F0004158E72DE9AD
:10048000FE4F81EA030404F0004421F0004100948F
:100490004FF0000B23F0004350EA01045ED052EA13
:1004A00003045BD0C3F30A54C1F30A552C44A4F2ED
:1004B000F3340194A0FB0254C1F3130141F4801101
:1004C000C3F3130343F4801301FB024400FB034E08
:1004D000840A970A44EA815447EA8357A4FB0768D1
:1004E00002958D0A05FB07854FEA932C04FB0C54FB
:1004F0002705029D4FEA065847EA1637B5EB08056F
:100500006EEB070C870E920E47EA811742EA8312C0
:10051000A7FB0201B6EB0B0164EB00042B0D43EAD1
:100520000C335E1844EB1C50DA465146E7FB0201DF
:10053000C5F313044FEA0B3343EA14534FEA043272
:10054000019C43EA0603A4F10C040294009CCDE94B
:1005500000B400F0EBF903B0BDE8F08F00200146D5
:10056000F9E72DE9F04D81EA030404F0004B21F096
:10057000004514464FF0000A23F0004150EA0502FE
:1005800020D054EA01021DD0C5F30A570246C5F334
:100590001303C1F31300C1F30A5640F4801543F46A
:1005A0008013A7EB0608101BD64608F2FD3873EB44
:1005B000050002D308F1010801E092185B41B8F18F
:1005C000000F03DA00200146BDE8F08D00204FF453
:1005D0008011064684460EE0171B73EB050705D312
:1005E000121B63EB050306434CEA010C49084FEA72
:1005F000300092185B4150EA0107EDD152EA030046
:1006000012D082EA040083EA0501084305D0101BDA
:10061000AB4106D20122002306E000224FF0004346
:1006200002E06FF0010253101AEB06004CEB085188
:1006300010EB0A0041EB0B01BDE8F04D00F067B98B
:10064000002801DBC0F10040002901DBC1F10041BD
:10065000814201D80120704700207047002801DB4B
:10066000C0F10040002901DBC1F10041814201D20B
:100670000120704700207047002801DBC0F10040D6
:10068000002901DBC1F10041814201D30120704703
:1006900000207047002801DBC0F10040002901DB89
:1006A000C1F10041814201D901207047002070470B
:1006B000002801DBC0F10040002901DBC1F100414D
:1006C000814201D10120704700207047C10F80EAAC
:1006D000E0700844CA079623002100F0EAB8962388
:1006E0000022114600F0E5B80EB5C10F80EAE070B7
:1006F0000844CA07002140F233438DE80E000A4641
:100700000B4600F013F903B000BD0EB540F23341C3
:1007100002910021CDE900110A460B4600F006F9CE
:1007200003B000BD00F0004220F00040C10DC0F356
:10073000160040F400007F2901DA00207047962956
:1007400003DCC1F19601C84001E096398840002AD7
:10075000F4D04042704720F00040C10DC0F31600B5
:1007600040F400007F2901DA00207047962903DC5D
:10077000C1F19601C840704796398840704700F033
:10078000004230F000400AD0C10D01F56071C0F3A5
:10079000160042EA0151C208400711437047002089
:1007A0000146704701F0004330B421F0004150EAA7
:1007B000010206D00A0DA2F56072C1F31301002AEE
:1007C00002DC30BC00207047440F44EAC104C10081
:1007D000E01830BC00EBC25000F062B82DE9F05FC9
:1007E0000546002092469B468846064681464024A0
:1007F0001BE0284641464746224600F02FF8534664
:100800005A46C01A914110D311461846224600F0AC
:1008100016F82D1A67EB01084F46224601200021E9
:1008200000F00DF817EB00094E41201EA4F1010461
:10083000DFDC484631462A464346BDE8F09F202A81
:1008400004DB203A00FA02F1002070479140C2F127
:10085000200320FA03F3194390407047202A04DB59
:10086000203A21FA02F00021704721FA02F3D04029
:10087000C2F120029140084319467047202A06DB46
:10088000CB17203A41FA02F043EAE07306E041FA5E
:1008900002F3D040C2F1200291400843194670474C
:1008A0000029A8BF7047401C490008BF20F0010084
:1008B000704710B4B0FA80FC00FA0CF050EA010462
:1008C00004BF10BC704749B1CCF1200421FA04F4F4
:1008D00011FA0CF118BF012121430843A3EB0C01CD
:1008E000CB1D4FEA00614FEA102042BF002010BC30
:1008F000704700EBC35010440029A4BF10BC7047E0
:10090000401C490008BF20F0010010BC704710B522
:10091000141E73F1000408DA401C41F10001921822
:100920005B411A4301D120F0010010BD2DE9F04DCB
:1009300092469B4611B1B1FA81F202E0B0FA80F220
:1009400020329046FFF77BFF04460F4640EA0A003C
:1009500041EA0B0153465A46084313D0114653EA65
:10096000010019D0C8F140025046FFF777FF054655
:100970000E46504659464246FFF761FF084305D0F0
:10098000012004E020463946BDE8F08D00200543F3
:1009900046EAE0762C4337430A986305E40AA0EB65
:1009A00008000022FD0A44EA47540A3002D500201C
:1009B0000146E9E7010510196941DDE9084500191B
:1009C0006941BDE8F04DA2E770B521F00043034353
:1009D0000CD0C1F30A550024D5EB040564EB0403E5
:1009E000D617AD1AB34102DB0020014670BD2018B6
:1009F00041EB025170BD2DE9F04D00231A461B1A40
:100A00008A4103DB00200146BDE8F08DC1F30A52A4
:100A1000C1F3130141F480154FF0000BD10702D14F
:100A200000186D41521E0027044640F2FF1138465F
:100A300001EB620A3E468046024600204FF48011D8
:100A4000FFF70CFFC2197141BB1846EB0100B4EB74
:100A5000030C75EB000C04D3E41A65EB0005174694
:100A60000E46241908F101006D4180463428E3DD6B
:100A7000F91946EB0600091BA84103D24FF0FF32DB
:100A8000134601E0002213461BEB070046EB0A5118
:100A9000BDE8F04DFFF73BBF30B5041E71F1000417
:100AA00004DB4FF00044404264EB0101141E73F17B
:100AB000000405DB1C464FF00043524263EB040385
:100AC0008B4208BF824230BD064C074D06E0E0680D
:100AD00040F0010394E8070098471034AC42F6D385
:100AE000FFF708FBBC800008DC80000880B54FF4ED
:100AF000A06001F08FFC482002F0CAF801F094FCDD
:100B0000012001F019F901F079F804F0E1F830B1B1
:100B10000A2002F00DFE04F0DBF80028F8D101F005
:100B200093FB002001F02EFC002001F015FC00F0EA
:100B300009FFBDE8804001F0A5B800002DE9F04FA5
:100B400081B0894640F20811C2F20001A1F800907C
:100B50001146FFF777FB40F2B804C2F200042168A7
:100B60008046FFF71DFB0026C4F2C8263146074623
:100B70002060FFF78FFD08B1266009E00026CCF267
:100B8000C82638463146FFF777FD002808BF2660A3
:100B900040F25000C2F20000D0E900BA4046FFF730
:100BA000EEFD044640F24800C2F20000D0E90057D2
:100BB00048460E46FFF798FD02460B462846394642
:100BC000FFF75DFC05460F46584651462246334620
:100BD000FFF755FC2A463B46FFF7AAFB044640F2C6
:100BE000F000C2F20000D0E9005640F2B800C2F2B4
:100BF000000000680F46FFF7C2FD02460B4628467C
:100C00003146FFF73CFC22463B46FFF791FBFFF7DE
:100C1000C9FD40F20011C2F20001C1F8008040F2AB
:100C20009001C2F20001086040F29401C2F200019A
:100C3000086001B0BDE8F08FFEE7000070470000DB
:100C40002DE9F04381B040F200454FF48040C4F2FA
:100C5000010500F00FFE002800F041854FF48040B0
:100C600000F002FE286840F2BC0820F480402860B2
:100C700040F23810C4F22220C2F20008006898F84E
:100C8000001040F2EB078842C2F2000706D005F5DB
:100C9000205002F0D1F804460120387005F52050AC
:100CA0000021002602F0C2FA3878002800F01785EB
:100CB00040F2EA00C2F2000001783E703F2900F2E3
:100CC000C282DFE811F04000480054005B00680079
:100CD0006F007C00830090009700A400AB00B80078
:100CE000BF00CC00D300E000E700F400FB000801E7
:100CF0000F011C0123013001370144014B01580150
:100D00005F016C0173018001870194019B01A801BF
:100D1000AF01BC01C301D001D701E401EB01F8012F
:100D2000FF010C0213022002270234023B02480298
:100D30004F025C0263027002770284028B02980207
:100D40009F02AC02B302A4F5C871642900F2C38407
:100D5000012100F0C1BCA4F1C801322900F2848253
:100D600002210170002088F8000000F0B8BCA4F156
:100D70001401282900F2AF84032170E2A4F13C01A0
:100D8000272900F2808240F2E001C2F200010968E6
:100D90004900013182E2A4F11401282900F29B8468
:100DA00005215CE2A4F13C01272900F27E8240F299
:100DB000E001C2F2000109684900013180E2A4F1BA
:100DC0001401282900F28784072148E2A4F13C019C
:100DD000272900F27C8240F2E001C2F2000109689A
:100DE000490001317EE2A4F11401282900F2738444
:100DF000092134E2A4F13C01272900F27A8240F271
:100E0000E001C2F200010968490001317CE2A4F16D
:100E10001401282900F25F840B2120E2A4F13C0197
:100E2000272900F2788240F2E001C2F2000109684D
:100E3000490001317AE2A4F11401282900F24B841F
:100E40000D210CE2A4F13C01272900F2768240F248
:100E5000E001C2F2000109684900013178E2A4F121
:100E60001401282900F237840F21F8E1A4F13C0194
:100E7000272900F2748240F2E001C2F20001096801
:100E80004900013176E2A4F11401282900F22384FB
:100E90001121E4E1A4F13C01272900F2728240F221
:100EA000E001C2F2000109684900013174E2A4F1D5
:100EB0001401282900F20F841321D0E1A4F13C0190
:100EC000272900F2708240F2E001C2F200010968B5
:100ED0004900013172E2A4F11401282900F2FB83D8
:100EE0001521BCE1A4F13C01272900F26E8240F2F9
:100EF000E001C2F2000109684900013170E2A4F189
:100F00001401282900F2E7831721A8E1A4F13C018C
:100F1000272900F26C8240F2E001C2F20001096868
:100F2000490001316EE2A4F11401282900F2D383B3
:100F3000192194E1A4F13C01272900F26A8240F2D0
:100F4000E001C2F200010968490001316CE2A4F13C
:100F50001401282900F2BF831B2180E1A4F13C0188
:100F6000272900F2688240F2E001C2F2000109681C
:100F7000490001316AE2A4F11401282900F2AB838F
:100F80001D216CE1A4F13C01272900F2668240F2A8
:100F9000E001C2F2000109684900013168E2A4F1F0
:100FA0001401282900F297831F2158E1A4F13C0184
:100FB000272900F2648240F2E001C2F200010968D0
:100FC0004900013166E2A4F11401282900F283836B
:100FD000212144E1A4F13C01272900F2628240F280
:100FE000E001C2F2000109684900013164E2A4F1A4
:100FF0001401282900F26F83232130E1A4F13C0180
:10100000272900F2608240F2E001C2F20001096883
:101010004900013162E2A4F11401282900F25B8346
:1010200025211CE1A4F13C01272900F25E8240F257
:10103000E001C2F2000109684900013160E2A4F157
:101040001401282900F24783272108E1A4F13C017B
:10105000272900F25C8240F2E001C2F20001096837
:10106000490001315EE2A4F11401282900F2338322
:101070002921F4E0A4F13C01272900F25A8240F230
:10108000E001C2F200010968490001315CE2A4F10B
:101090001401282900F21F832B21E0E0A4F13C0178
:1010A000272900F2588240F2E001C2F200010968EB
:1010B000490001315AE2A4F11401282900F20B83FE
:1010C0002D21CCE0A4F13C01272900F2568240F208
:1010D000E001C2F2000109684900013158E2A4F1BF
:1010E0001401282900F2F7822F21B8E0A4F13C0175
:1010F000272900F2548240F2E001C2F2000109689F
:101100004900013156E2A4F11401282900F2E382DA
:101110003121A4E0A4F13C01272900F2528240F2DF
:10112000E001C2F2000109684900013154E2A4F172
:101130001401282900F2CF82332190E0A4F13C0170
:10114000272900F2508240F2E001C2F20001096852
:101150004900013151E2A4F11401282900F2BB82B7
:1011600035217CE0A4F13C01272900F24D8240F2B8
:10117000E001C2F200010968490001314EE2A4F128
:101180001401282900F2A782372168E0A4F13C016C
:10119000272900F24A8240F2E001C2F20001096808
:1011A000490001314BE2A4F11401282900F2938295
:1011B000392154E0A4F13C01272900F2478240F292
:1011C000E001C2F2000109684900013148E2A4F1DE
:1011D0001401282900F27F823B2140E0A4F13C0168
:1011E000272900F2448240F2E001C2F200010968BE
:1011F0004900013145E2A4F11401282900F26B8273
:101200003D212CE0A4F13C01272900F2418240F26B
:10121000E001C2F2000109684900013142E2A4F193
:101220001401282900F257823F2118E0A4F13C0163
:10123000272940F2E001C2F2000100F23A820A6876
:10124000520001323BE2412900F0E082402940F0A7
:101250004682A4F11401282900F23D824121017047
:10126000012088F800003AE2A4F15F010022282959
:10127000027088F8002000F2328240F21410C2F2AC
:1012800000000D21EEE2A4F10A01272900F21F82DD
:1012900040F2E001C2F200010968490040F2E002B8
:1012A000C2F20002116004210BE2A4F10A01272915
:1012B00000F20D8240F2E001C2F20001096849002B
:1012C00040F2E002C2F2000211600621F9E1A4F14D
:1012D0000A01272900F2FB8140F2E001C2F200017D
:1012E0000968490040F2E002C2F2000211600821E0
:1012F000E7E1A4F10A01272900F2E98140F2E001C7
:10130000C2F200010968490040F2E002C2F20002A4
:1013100011600A21D5E1A4F10A01272900F2D78141
:1013200040F2E001C2F200010968490040F2E00227
:10133000C2F2000211600C21C3E1A4F10A012729C5
:1013400000F2C58140F2E001C2F2000109684900E3
:1013500040F2E002C2F2000211600E21B1E1A4F1FC
:101360000A01272900F2B38140F2E001C2F2000134
:101370000968490040F2E002C2F200021160102147
:101380009FE1A4F10A01272900F2A18140F2E001C6
:10139000C2F200010968490040F2E002C2F2000214
:1013A000116012218DE1A4F10A01272900F28F8139
:1013B00040F2E001C2F200010968490040F2E00297
:1013C000C2F20002116014217BE1A4F10A01272975
:1013D00000F27D8140F2E001C2F20001096849009B
:1013E00040F2E002C2F200021160162169E1A4F1AC
:1013F0000A01272900F26B8140F2E001C2F20001EC
:101400000968490040F2E002C2F2000211601821AE
:1014100057E1A4F10A01272900F2598140F2E001C5
:10142000C2F200010968490040F2E002C2F2000283
:1014300011601A2145E1A4F10A01272900F2478130
:1014400040F2E001C2F200010968490040F2E00206
:10145000C2F2000211601C2133E1A4F10A01272924
:1014600000F2358140F2E001C2F200010968490052
:1014700040F2E002C2F2000211601E2121E1A4F15B
:101480000A01272900F2238140F2E001C2F20001A3
:101490000968490040F2E002C2F200021160202116
:1014A0000FE1A4F10A01272900F2118140F2E001C5
:1014B000C2F200010968490040F2E002C2F20002F3
:1014C00011602221FDE0A4F10A01272900F2FF802A
:1014D00040F2E001C2F200010968490040F2E00276
:1014E000C2F2000211602421EBE0A4F10A012729D5
:1014F00000F2ED8040F2E001C2F20001096849000B
:1015000040F2E002C2F2000211602621D9E0A4F10B
:101510000A01272900F2DB8040F2E001C2F200015B
:101520000968490040F2E002C2F20002116028217D
:10153000C7E0A4F10A01272900F2C98040F2E001C6
:10154000C2F200010968490040F2E002C2F2000262
:1015500011602A21B5E0A4F10A01272900F2B78021
:1015600040F2E001C2F200010968490040F2E002E5
:10157000C2F2000211602C21A3E0A4F10A01272984
:1015800000F2A58040F2E001C2F2000109684900C2
:1015900040F2E002C2F2000211602E2191E0A4F1BB
:1015A0000A01272900F2938040F2E001C2F2000113
:1015B0000968490040F2E002C2F2000211603021E5
:1015C0007FE0A4F10A01272900F2818040F2E001C6
:1015D000C2F200010968490040F2E002C2F20002D2
:1015E000116032216DE0A4F10A0127296FD840F281
:1015F000E001C2F200010968490040F2E002C2F2D3
:101600000002116034215CE0A4F10A0127295ED8B0
:1016100040F2E001C2F200010968490040F2E00234
:10162000C2F20002116036214BE0A4F10A01272921
:101630004DD840F2E001C2F200010968490040F2D1
:10164000E002C2F20002116038213AE0A4F10A017E
:1016500027293CD840F2E001C2F2000109684900A4
:1016600040F2E002C2F2000211603A2129E0A4F146
:101670000A0127292BD840F2E001C2F200010968D3
:10168000490040F2E002C2F2000211603C2118E081
:10169000A4F10A0127291AD840F2E001C2F20001A0
:1016A0000968490040F2E002C2F2000211603E21E6
:1016B00007E0A4F10A02272A09D80A6852000A6042
:1016C0004021017040F2BC00C2F2000003E040F291
:1016D000EA00C2F200000021017088F800102868BA
:1016E00040F4804028604FF4005000F0C3F8002818
:1016F00000F0858048F23410C4F2212004684FF0D5
:10170000804001F099FBFEF7EAFF5CB140F29801DE
:10171000C2F20001086040F29C00C2F20000002109
:1017200001806CE040F29805C2F200052968FEF7DE
:1017300089FD044640F29C00C2F2000000884FF48C
:10174000E1514843FEF7C2FF01462046FEF728FD5F
:101750000021C4F28811FEF77BFD0021C4F2615123
:10176000FEF7A8FD40F23C07C2F20007397840F2CC
:10177000C006C2F200064A1E0029316828603A708D
:1017800003D0FEF70DFD306039E00846FEF7F7FFA5
:101790004CF6CD424CF6CC43CCF6CC42C3F6EC73BF
:1017A000FEF76DFE0023C4F2240300224FF0000870
:1017B000FEF7D7FE40F25809C2F200090446D9F8F4
:1017C00000000D46FEF7DBFF49F69A1249F6991321
:1017D000C9F69912C3F6B973FEF751FE22462B469D
:1017E000FEF7A6FDFEF7DEFF40F23801C2F200016F
:1017F0000860C9F800000A203870C6F800804FF46D
:10180000005001B0BDE8F04300F02EB8A4F13C0157
:10181000272907D840F2E001C2F200010A6853000C
:10182000013309E0A4F10A01272914D840F2E001AC
:10183000C2F200010A6853000B600021017040F2FF
:101840009E01D009C2F20001887040F21410C2F269
:1018500000000D2100E00021017040F2DC00C2F226
:101860000000012101703AE740F21441C4F2010185
:101870000860704740F20041C4F201010A684969FA
:101880000240084018BF0120002A18BF0122104062
:10189000704700008179002940F20041C4F2010143
:1018A0001FD002680B6893430B604B6893434B60F7
:1018B000037943EA010CDCF800301A43CCF800202D
:1018C00002688B6893438B60CB689343CB6040790D
:1018D00010280ED1886810438860C8681043C8601B
:1018E00070470279006811430A6822EA0000086024
:1018F000704708430168114301607047B0B540F27A
:101900000044C4F20004204601F096FA47F2305138
:10191000451A204647F2305101F088FC2846B0BDF8
:10192000B0B540F60004C4F20004204601F084FA89
:1019300047F23051451A204647F2305101F076FC0B
:101940002846B0BD2DE9F04387B00220012101F007
:101950009DF8042001214FF0040801F0A3F80420B1
:10196000012101F093F80820012101F09BF8C0202B
:1019700040F20044C4F60300C4F2000406AD069031
:1019800004F58230294600F093F8C020ADF8180025
:1019900004F58430294600F08BF84FF6FF7003AE53
:1019A00004904FF0000920463146CDF80C908DF898
:1019B000149001F03DFC04F580652846314601F0A5
:1019C00037FC6E46304601F09BFB0F272046314620
:1019D000ADF80090ADF8087001F042FA20463146AB
:1019E000ADF80080ADF8087001F03AFA28463146AB
:1019F000ADF80090ADF8087001F032FA2846314693
:101A0000ADF80080ADF8087001F02AFA20460321F5
:101A10000022002301F0F6F92846032100220023CA
:101A200001F0F0F9204647F2305101F0FFFB284663
:101A300047F2305101F0FAFB2046012101F0D8F9BC
:101A40002846012101F0D4F907B0BDE8F083000079
:101A5000A0F18040A0F584304FEAB02004288EBF6A
:101A6000002002A151F82000704700BF04000000D0
:101A700008000000100000002000000040000000EE
:101A800010B50C22082402EA810201F0FC01C4F224
:101A900001044FF00F0C51F804E00CFA02F32EEAA7
:101AA00003030B510B5990401843085110BD00001F
:101AB0002DE9F047CA7802F00F0CD30644BF8B78AB
:101AC0004CEA030C09880B0625D082465AF8144BC1
:101AD00000F1100E00254FF001094FF00F0800270C
:101AE00006E000BF1E600137082F05F1040511D084
:101AF00009FA07F60E42F6D008FA05F324EA0303C2
:101B00000CFA05F41C43282A5346EBD0482AEAD1A4
:101B10007346E7E70460B1F5807F38BFBDE8F08722
:101B2000436800F1100E00F1140900254FF4807A8B
:101B30004FF00F08002705E034600137082F05F14A
:101B4000040512D00AFA07F404EA0106A642F4D109
:101B500008FA05F6B3430CFA05F63343282A4E4635
:101B6000EAD0482AE9D17646E6E74360BDE8F08747
:101B7000B0B50422C4F20102134602F1180E002887
:101B800048BF73461C6800F44013B3F5401F1FFAAA
:101B900080FC06D1156824F0706325F07064146031
:101BA00015E0C3020AD46FF00F0303EA50430CFAA6
:101BB00003F324EA030343F0706308E0C0F3034334
:101BC000032505FA03F324EA030343F070636FF07F
:101BD0000F0404EA504400290CFA04F518BF2B4303
:101BE000002848BF72461360B0BD00000161704715
:101BF0001023002A08BF1423C150704770B586B067
:101C000011200121012500F04DFF42F6004448203B
:101C1000C4F201044FF480468DF80F00A4F5E050A3
:101C200003A9ADF80C60FFF743FF02200E21FFF778
:101C300027FF4FF40060012100F034FF4FF6FF70E2
:101C4000049040F29F50039000208DF8140003A9E7
:101C5000204601F0EDFA2046012101F0C9F84FF4C9
:101C60008050ADF80400684600968DF80650FFF7E6
:101C700011FE2820C0F20210029002A800F09AFB88
:101C800006B070BDF0B585B040F60044C4F2010462
:101C90002046FFF7DDFE05462046FFF7D9FE284324
:101CA0000121012600F0FEFE0120012100F0FAFED4
:101CB00040F20020C0F230000121FFF759FF41F24D
:101CC0000000C1F2010004AD049020462946FFF750
:101CD000EFFE04208DF813004FF4005720462946EC
:101CE000ADF81070FFF7E4FE01200D21FFF7C8FEEC
:101CF0004FF48050ADF80C0002A802978DF80E60EA
:101D0000FFF7C8FD40F22820C0F20210019001A8A0
:101D100000F050FB05B0F0BD10B548F2B014C4F2AD
:101D2000212401202060142001F02AFD00202060E1
:101D300010BD0000FEE700002DE9F04F81B041F634
:101D40000005C4F20105044641F2030000264FF4E9
:101D5000005AA5F50069E8464FF0080BADF80200FF
:101D600006E000BFFFF742FF0136102E00F0A18011
:101D700024FA06F0C007F7D0F0B20928F4D8DFE85B
:101D800000F0051525354555657989054846ADF8B6
:101D900000A0FFF75DFE012100F084FE48464146A9
:101DA000FFF786FE48464FF40051DBE72020ADF8F0
:101DB00000002846FFF74CFE012100F073FE284684
:101DC0004146FFF775FE28462021CBE70120ADF8FC
:101DD00000002846FFF73CFE012100F063FE284684
:101DE0004146FFF765FE28460121BBE70420ADF818
:101DF00000002846FFF72CFE012100F053FE284684
:101E00004146FFF755FE28460421ABE71020ADF808
:101E100000002846FFF71CFE012100F043FE284683
:101E20004146FFF745FE284610219BE74020ADF8CC
:101E300000002846FFF70CFE012100F033FE284683
:101E40004146FFF735FE284640218BE74FF40070EE
:101E5000A5F54067ADF800003846FFF7F9FD012110
:101E600000F020FE38464146FFF722FE38464FF488
:101E7000007177E70220ADF800002846FFF7E8FD83
:101E8000012100F00FFE28464146FFF711FE2846CB
:101E9000022167E72846ADF800B0FFF7D9FD012120
:101EA00000F000FE28464146FFF702FE28460821C2
:101EB00058E701B0BDE8F08F70B582B014460D460A
:101EC00006460DF1020368203B21062200F05CF972
:101ED00008B102B070BDBDF80210BDF8042009BA07
:101EE000090C318011BABDF80620090C298011BAFD
:101EF000090C218002B070BD70B582B014460D4649
:101F000006460DF1020368204321062200F03CF949
:101F100008B102B070BDBDF80210BDF8042009BAC6
:101F2000090C318011BABDF80620090C298011BABC
:101F3000090C218002B070BDB0B582B040F600043B
:101F4000C4F201042046FFF783FD012100F0AAFD41
:101F50002046FFF77DFD012100F0A4FD40F60000C2
:101F6000C1F2030001AD019020462946FFF7A0FD14
:101F70004FF48050ADF8040020462946FFF798FD45
:101F800020464FF40061FFF731FE20464FF48051A8
:101F9000FFF72CFE02B0B0BD2DE9F04740F6040972
:101FA000C4F20109D9F80010804621F47020C9F864
:101FB0000000D9F8000040F2AC15C4F2212540F42D
:101FC00000204FF0000A012700260024C9F8000075
:101FD0000220C5F800A001F0D3FB2F6055F87C0C5F
:101FE000002818BF012040EA4606022001F0C8FB85
:101FF000072C04F10104EBD300242C60D9F8000075
:10200000B8FA88F120F47020C9F80000D9F800006F
:10201000490940F44030C9F800000220696001F02D
:10202000AFFB01202860022001F0AAFBF0B22C6077
:10203000BDE8F0872DE9F04140F60401C4F201014A
:102040000A68044622F470200860086840F2AC1563
:10205000C4F2212540F440304FF00008012700264B
:102060000860C5F8008000BFE0B2C00968600220C7
:1020700064002F6001F084FB0220C5F8008001F0AD
:102080007FFB072E06F10106EED3BDE8F0810000CC
:10209000B0B540F60400C4F20100016840F2AC148F
:1020A00021F4702101600168C4F2212441F440311F
:1020B0000160012060602060022001F061FB0025CA
:1020C0000220656001F05CFB2560B0BD10B540F6F4
:1020D0000400C4F20100016840F2AC1421F4702144
:1020E00001600168C4F2212441F440310160002004
:1020F00020606060022001F043FB0121216002208A
:102100006160BDE8104001F03BBB000070B540F6D7
:102110000404C4F20104206840F2AC1520F47020DD
:1021200020602068C4F2212540F4002020600126B0
:1021300002206E6001F024FB02202E6001F020FBE3
:10214000002000BF55F87C1CD1B1B0F5BB7F00F179
:102150000100F7D9206820F470202060206840F446
:1021600040302060002028606860022001F008FBF9
:10217000012402202C606C6001F002FB204670BD3F
:10218000002420462C6070BDF0B581B01D46144679
:102190000E460746FFF77CFF7F00F8B2FFF74AFFC5
:1021A000FFF7B4FF28B10124FFF790FFE0B201B0C0
:1021B000F0BD3046FFF73EFFFFF7A8FFFFF768FFCF
:1021C00047F00100C0B2FFF735FFFFF79FFF05E0C2
:1021D0000020FFF7E1FE05F8010B013CE0B2012809
:1021E000F6D00028E0D00120F3E70000F0B581B080
:1021F0001C4615460E460746FFF74AFF7800C0B258
:10220000FFF718FFFFF782FF28B10124FFF75EFFF9
:10221000204601B0F0BD3046FFF70CFFFFF776FF18
:1022200065B100BF2078FFF705FFFFF76FFF38B9F2
:10223000013D04F10104F5D10024E7E70024E5E7BE
:102240000124E3E7FEE70000F0B589B040F60004A2
:10225000C4F2010404F580663046FFF7F9FB012162
:10226000012700F01FFC3046FFF7F2FB012100F0D0
:1022700019FC0320C1F2030008AD0890304629463E
:10228000FFF716FC4FF44060ADF8200030462946B9
:10229000FFF70EFC0120012100F0F8FB2046FFF7BC
:1022A000D7FB012100F0FEFB2046FFF7D1FB012107
:1022B00000F0F8FB0220C1F60300089020462946F2
:1022C000FFF7F6FB20462946ADF82070FFF7F0FB3C
:1022D0004FF0804000F022FF41F61E40069009209A
:1022E0000590002505A94FF080408DF81C5000F0A6
:1022F0009FFF4FF08040012100F072FD4FF08040C1
:102300000121012200F002FF4FF4A06000F082F8EA
:1023100040F21C30C0F20310049004A800F04AF808
:102320006C46204600F078FF6020C0F2010000906B
:102330004FF080402146CDF8065000F0F5FE4FF0FA
:102340008040214600F02EFF4FF08040012100F038
:102350004FFD09B0F0BD000048F2A8110028C4F2FA
:10236000212104D400220A6001224A6004E00122F3
:102370000A60002240424A6081B24FF0804000F083
:1023800051BF000048F280110028C4F2212104D47A
:1023900000224A6001220A6004E001224A60002211
:1023A00040420A6081B24FF0804000F03DBF000023
:1023B0007047000010B5C17800294EF20011CEF22E
:1023C00000011AD04EF60C52CEF20002126807231A
:1023D00023EA12220F23C2F1040C23FA02F24378FB
:1023E000847890F800E003FA0CF322401A431201BB
:1023F00001EB0E0383F8002300E080310078012315
:1024000000F01F0203FA02F2C0F3421041F820204C
:1024100010BD000040F080604EF60C5140F0FD70A1
:10242000CEF2000108607047B0B582B040F60044BB
:10243000C4F201042046FFF70BFB05462046FFF7D8
:1024400007FB2843012100F02DFB48F20000C1F2F8
:10245000034001AD019020462946FFF729FB4FF4C8
:102460008040ADF8040020462946FFF721FB2046B6
:102470004FF400410122FFF7BBFB20464FF480419F
:102480000122FFF7B5FBAE2000F03AF9D52000F0AD
:1024900037F9802000F034F9A82000F031F93F200E
:1024A00000F02EF9D32000F02BF90020002400F0DA
:1024B00027F9402000F024F9A12000F021F9C820DC
:1024C00000F01EF9DA2000F01BF9122000F018F9D4
:1024D000812000F015F9CF2000F012F9D92000F08A
:1024E0000FF9F12000F00CF9DB2000F009F93020A1
:1024F00000F006F9A42000F003F9A62000F000F98E
:102500008D2000F0FDF8142000F0FAF8AF2000F064
:10251000F7F800BF44F0B000C0B200F0F1F81020AE
:1025200000F0EEF80020002500F0EAF8002000F0AE
:102530008BF9681C45B2B5F1FF3FF7DCE0B201341E
:102540000728E7D302B0B0BD2DE9F04381B01646AD
:102550007E224FEA400802EB40006FF0070240F095
:10256000B00002EBC104C0B2E5B200F0C9F828091E
:1025700000F11009484600F0C3F804F008052846A9
:1025800000F0BEF846F62A60C0F6000000EB061622
:10259000A6F20127082400BF17F8010F00F054F934
:1025A000013CF9D1A8F1010040F0B000C0B200F048
:1025B000A7F8484600F0A4F8284600F0A1F8A6F2D3
:1025C000F914082514F8010F00F03EF9013DF9D186
:1025D00001B0BDE8F08300002DE9F047002B08BFF3
:1025E000BDE8F0874CF6CD4A1C4690468946074622
:1025F0005D420026CCF6CC4A18E000BF0120B8FBB3
:10260000F0F0A0FB0A12D20802EB8202A0EB42001B
:1026100006EB090140F03000C2B2C9B23846FFF7FC
:1026200093FF0136A64205F101050DD0F0430019D4
:10263000E4D00120294600BF00EB800001314A1C94
:102640004FEA4000F8D1DAE7BDE8F0872DE9F0471E
:102650001C4691468846002A074603D42B22FFF7E2
:1026600073FF04E02D22FFF76FFFC9F10009002C72
:1026700008BFBDE8F0874CF6CD4A66420025CCF68F
:10268000CC4A17E00120B9FBF0F00135A0FB0A129B
:10269000D20802EB8202A0EB420005EB080140F0F9
:1026A0003000C2B2C9B23846FFF74EFFA54206F16C
:1026B00001060DD0E8430019E4D00120314600BFE7
:1026C00000EB800001314A1C4FEA4000F8D1DAE704
:1026D000BDE8F087F0B581B0144612786AB10D46B6
:1026E000064600277819C1B2D2B23046FFF72CFF58
:1026F0000137F8B2225C002AF4D101B0F0BD00002D
:10270000F0B581B040F60044C4F20104054620460D
:102710004FF480410122FFF76BFA20464FF400414D
:102720000122FFF765FA20464FF48041002200267F
:10273000FFF75EFA20464FF400410022FFF758FAF7
:10274000802700BF27FA06F000F0780220464FF4F9
:102750008041FFF74DFA20464FF400410122FFF778
:1027600047FA20464FF400410022FFF741FA0136B4
:10277000082EE7D120464FF400410122FFF738FA36
:1027800020464FF400410022FFF732FA082600BF2E
:1027900020464FF480410022FFF72AFA20464FF4EA
:1027A00000410122FFF724FA20464FF400410022A5
:1027B000FFF71EFA013EEBD120464FF40041012203
:1027C000FFF716FA20464FF4004100220026FFF7DB
:1027D0000FFA802727FA06F000EA050220464FF498
:1027E0008041FFF705FA20464FF400410122FFF730
:1027F000FFF920464FF400410022FFF7F9F90136B6
:10280000082EE7D120464FF400410122FFF7F0F9EE
:1028100020464FF400410022FFF7EAF920464FF42A
:1028200080410022FFF7E4F920464FF400410122E5
:10283000FFF7DEF920464FF48041012201B0BDE8E8
:10284000F040FFF7D5B90000F0B581B040F6004484
:10285000C4F20104054620464FF480410122FFF7EF
:10286000C7F920464FF400410122FFF7C1F9204685
:102870004FF4804100220026FFF7BAF920464FF4BA
:1028800000410022FFF7B4F9802700BF27FA06F0C5
:1028900000F0780220464FF48041FFF7A9F9204666
:1028A0004FF400410122FFF7A3F920464FF4004105
:1028B0000022FFF79DF90136082EE7D120464FF49C
:1028C00000410122FFF794F920464FF40041002215
:1028D0000026FFF78DF9802727FA06F000F0400266
:1028E00020464FF48041FFF783F920464FF4004122
:1028F0000122FFF77DF920464FF400410022FFF747
:1029000077F90136082EE7D120464FF40041012225
:10291000FFF76EF920464FF4004100220026FFF732
:1029200067F9802727FA06F000EA050220464FF4EF
:102930008041FFF75DF920464FF400410122FFF787
:1029400057F920464FF400410022FFF751F90136B4
:10295000082EE7D120464FF400410122FFF748F945
:1029600020464FF400410022FFF742F920464FF481
:1029700080410022FFF73CF920464FF4004101223C
:10298000FFF736F920464FF48041012201B0BDE83F
:10299000F040FFF72DB90000032841D0022802D0F3
:1029A000012818BF704740F250004EF20001C2F2F9
:1029B0000000C4F270010022C0E9002140F248008A
:1029C00048F20001C2F20000C4F25B01C0E900213C
:1029D00040F2F000C2F20000C0E9002240F22800FC
:1029E00048F20001C2F20000C4F25601C0E9002121
:1029F00040F220004CF6CC414CF6CD43C2F2000030
:102A0000C3F6DC71CCF6CC43C0E9003140F23000B3
:102A10000021C2F20000C4F24401C0E90021704765
:102A200040F250004CF20001C2F20000C4F2720108
:102A30000022C0E9002140F248004CF20001C2F23D
:102A40000000C4F26201C0E9002140F2F000C2F2CD
:102A50000000C0E9002240F2280048F20001C2F262
:102A60000000C4F25601C0E9002140F220004CF6FB
:102A7000CC414CF6CD42C2F20000C3F6DC71CCF67C
:102A8000CC42C0E90021704770470000002941F2A4
:102A90001C01C4F202010A680CBF22EA00001043C4
:102AA00008607047002941F21801C4F202010A6867
:102AB0000CBF22EA000010430860704710B541F2D5
:102AC0000404C4F20204226802F00C02082A41F253
:102AD0000022C0F27A021CD12368D4F800C0C3F3EC
:102AE000834E5FEACC330EF1020C06D440F600129E
:102AF000C0F23D020CFB02F20BE023689B0302D400
:102B00000CFB02F205E040F60012C0F23D020CFBA5
:102B100002F20260226846F61A63C2F30312C0F69C
:102B200000039A5C0168D14041602268C2F302222E
:102B30009A5C21FA02F282602268C2F3C2229A5C95
:102B400046F61663D140C1602268C0F60003C2F3A6
:102B500081329A5CB1FBF2F1016110BD7047000057
:102B60004EF21001CEF200010A68042822F004029D
:102B700008BF04320A6070477047000082B041F21B
:102B80000400C4F2020050F8041C002241F00101CC
:102B900040F8041C0168CFF6FF021140016050F8B4
:102BA000041C4FF6FF72CFF6F662114040F8041C89
:102BB00050F8041C21F4802140F8041C016821F421
:102BC000FE0101604FF41F0141600021019100915D
:102BD00050F8041C41F4803140F8041C4FF6FF719A
:102BE00050F8042C02F400320092019A0132019252
:102BF000009A12B9019A8A42F2D150F8041C890352
:102C000054BF0021012100910099012937D142F2DE
:102C10000001C4F202010A6842F010020A600A6868
:102C200022F003020A600A6842F002020A600168A8
:102C3000016001680160016841F480610160016820
:102C400021F47C110160016841F4E811016050F841
:102C5000041C41F0807140F8041C00BF50F8041CB3
:102C60008901FBD5016821F003010160016841F091
:102C700002010160016801F00C010829FAD14EF649
:102C80000850CEF200004FF00061016002B07047C2
:102C900010B504466FF00400FFF762FF40F2DD015B
:102CA000E008C2F20001087010BD000040F29C0074
:102CB000C2F2000040F218120188C2F2000213684A
:102CC0000131018001334FF080400121136000F099
:102CD00087B8000010B542F60044C4F20104204653
:102CE000012100F0ABF8012818BF10BD20460121DA
:102CF000BDE8104000F074B8B0B540F2A405C2F2CF
:102D00000005B5F9000040F600040028C4F20004F4
:102D10005ED42046012100F097F8B0B12888410424
:102D200013D501466FF39F3143F6FF7291420AD1EA
:102D300040F40040288040F2A600C2F200004FF6A6
:102D4000FF71018001E0013028802046022100F05F
:102D50007BF8E8B32888410419D440F2A600C2F2F7
:102D60000000002101804FF480402880204600218F
:102D700000F03EF82046002100F058FA20460221DB
:102D800000F00AFA2046012100F032F820E040F479
:102D900000402880204600F04DF82A8840F2A60125
:102DA000C2F200016FF39F320880C2EB02410A18A1
:102DB000022001210823FFF70FFC08A202200921AD
:102DC000FFF788FC002028802046002100F0E4F96D
:102DD00020460321BDE8B04000F006B8757300003E
:102DE000C943018270470000C94301827047000057
:102DF0000288002918BF012122F00102114401803C
:102E000070470000B0B5B0F808C0B0F818E0058C05
:102E10002CF0070421434FF6FC4404EA0E0425F08D
:102E2000220542EA031204F201142A4301810483B9
:102E30000284B0BD808E7047808C7047008A084045
:102E400018BF012070470000028A80890A4000EA0A
:102E5000010018BF0122002818BF01201040704750
:102E6000F0B50A88082A29D0042A52D0002A7BD13A
:102E70004B88B1F804C0B1F808E0028C40F6FF3688
:102E800022F001020284024632F8184F058CC4F287
:102E90000006B0424FF6FC7600F38F80B0F1804F11
:102EA00000F09E8040F20047C4F20007B84200F0F4
:102EB000978040F60007C4F200078EE04B88B1F817
:102EC00004C0B1F808E0028C40F6FF3722F48072AB
:102ED0000284024632F81C4F058C6FF44056C4F24F
:102EE0000007B84206F5145600F38B80B0F1804F0E
:102EF00000F0998040F20047C4F20007B84200F0A9
:102F0000928040F60007C4F20007B84200F08B80C0
:102F10008EE04B88B1F804C0B1F808E0028C40F6AE
:102F2000FF3722F010020284024632F8184F058C57
:102F30006FF00306C4F20007B842A6F1AD0600F335
:102F40008880B0F1804F00F0968040F20047C4F2D4
:102F50000007B84200F08F8040F60007C4F2000777
:102F6000B84200F088808AE04B88B1F804C0B1F81C
:102F700008E0028C40F6FF3622F4805202840246BA
:102F800032F81C4F058CC4F20006B04246F6FF56DC
:102F900000F38980B0F1804F00F0978040F2004745
:102FA000C4F20007B84200F0908040F60007C4F277
:102FB0000007B84200F089808AE040F60047C4F27A
:102FC0000007B8420CD042F60047C4F20107B842ED
:102FD00006D043F20047C4F20107B84218BF083ECA
:102FE00035402B4324F0F3044CEA0E1743F0010361
:102FF000274307830384C988038B23F00C030383CF
:103000007AE040F60047C4F20007B8420BD043F222
:103010000047C4F20107B84205D042F60047C4F2A7
:103020000107B84204D14CF6FF761B0206F5345670
:1030300035402B4324F0F3044CEA0E1743F480731D
:10304000274387830384C988838B23F00C038383FE
:1030500052E040F60047C4F20007B8420BD043F2FA
:103060000047C4F20107B84205D042F60047C4F257
:103070000107B84203D14FF6FC761B012D3E3540C7
:103080002B4340F6FF452C4044EA0E3743F0100333
:1030900047EA0C2707830384C988038B090223F4BA
:1030A0004063038328E040F60047C4F20007B842BB
:1030B0000BD043F20047C4F20107B84205D042F6F4
:1030C0000047C4F20107B84202D14CF6FF761B0359
:1030D00035402B4340F6FF454FEA0E372C4047EA78
:1030E0000C2743F48053274387830384C988838B49
:1030F000090223F440638383108808431080F0BDE5
:10310000002101220160426001817047002A82890A
:103110000CBF22EA0101114381817047018921F02E
:103120000701018170470000B0B5028C22F0010256
:103130000284038C8288B0F818C00C8923F0020343
:103140002343A0F180444D88A4F59634B1F800E003
:103150004FEAB424072C43EA050313D8012505FAE6
:1031600004F414F0E50F0DD04C8923F00C0324F087
:1031700004048D8823438C892B4322F44072CD892B
:1031800022432A432CF0730545EA0E05828005830D
:10319000C98881860384B0BD028C22F002021143EB
:1031A00001847047B0B5028C22F010020284038CB7
:1031B0008288B0F818E00C894D88B1F800C02C4323
:1031C00043F2004523F02003C4F20105A84243EA7C
:1031D000041305D042F60044C4F20104A04211D108
:1031E0004C896FF0400523F0C00305EA04148D8874
:1031F000234343EA05138C89CD8922F440622C4392
:1032000042EA84022EF4E64545EA0C2582800583D5
:10321000C98801870384B0BD0021C160816041601D
:1032200001607047818670470187704781847047CD
:1032300040F6FF33B0F800C0C4F2000398420FDC40
:10324000B0F1804F1ED040F20043C4F20003984218
:1032500018D040F60003C4F20003984212D016E0E2
:1032600040F60043C4F2000398420BD043F20043FF
:10327000C4F20103984205D042F60043C4F20103B0
:10328000984204D14B882CF0700243EA020C41F2C0
:10329000004240F48063C4F20002934204D0CA8822
:1032A0002CF4407342EA030CA0F800C08A8882859F
:1032B000A0F18042A2F596320B884FEAB222072A8B
:1032C000038507D8012303FA02F212F0E50F1CBFB1
:1032D000097A0186012181827047000010B543F60A
:1032E0000004C4F20104204640F2255100F076F8B3
:1032F000002808BF10BD204600F0FCF840F28C0109
:10330000C2F20001086010BD70B586B040F600043E
:10331000C4F2010405462046FEF79AFB0121FFF79F
:10332000C1FB2046FEF794FB0121FFF7BBFB4FF4E6
:1033300080400121FFF7B6FB40F20020C1F60300F8
:1033400005AE059020463146FEF7B2FB4FF4806093
:10335000ADF8140004208DF8170020463146FEF722
:10336000A7FB40F200610020C0F20C0104F54054BC
:1033700002900391ADF8100001A92046019500F0DC
:103380005DF82046012100F019F82046402100F0A8
:1033900011F8204640F22551012200F037F840F2A2
:1033A0002520C0F2021000906846FFF703F806B02F
:1033B00070BD0000C9430180704700008289002968
:1033C00018BF012122F4005242EA41318181704745
:1033D0000088084018BF012070470000C1F3421266
:1033E000022A06D0012A14BF00F1140200F10C02D7
:1033F00001E000F110021288008801F01F03090AA1
:10340000DA40C840104000F001007047C1F3421399
:1034100001F01F0C1421022B08BF1021012B4FF0CB
:10342000010308BF0C21002A03FA0CF243580CBF19
:1034300023EA02021A4342507047000070B586B07A
:103440000446008A0D46C98820F440500843208273
:10345000A0894EF6F3110840A9882A896B89084390
:1034600010431843A081A08AA98920F44070084322
:1034700001AEA0823046FFF721FB43F6000106F1C2
:103480000800C4F201018C4208BF06F10C0000687C
:103490001922B4F90C1050432A680123B1F1FF3FFF
:1034A000C8BF022302FA03F1B0FBF1F048F21F514A
:1034B000C5F2EB11A0FB01235A096FF0630302FB75
:1034C0000300B4F90C300326B3F1FF3FC8BF042654
:1034D00000FA06F000F13200A0FB01014FF00700F6
:1034E000C8BF0F2000EA511040EA0210208106B048
:1034F00070BD000080886FF35F2070476FF35F211D
:1035000081807047FEE700002DE9F04381B0FCF7B1
:1035100099FE0021C4F234310446FDF7BBF830B9FE
:103520000021CCF234312046FDF7A6F898B92046A8
:103530000021FDF785F838B90021CCF2B4312046DE
:10354000FCF72EFE044606E00020C4F2B43021460B
:10355000FCF778FE044640F2F80040F23001C2F277
:103560000000C2F20001D1E9009804602046FDF796
:1035700006F9044640F2A800C2F2000005C80F4652
:10358000114622463B46FCF77AFF06460D46484662
:10359000414622463B46FCF772FF32462B46FCF77B
:1035A000C7FEFDF7FFF840F29005C2F2000529685A
:1035B000044608462146FCF745FE40F29406C2F256
:1035C00000063168286008462146FCF7E9FD3060B6
:1035D00001B0BDE8F08300002DE9F041054640F25E
:1035E000E600C2F20000B0F9000040F204180C46F8
:1035F00082F00047C2F20008FDF768F80021C4F22B
:10360000C821FCF757FEFDF78DF806462846FDF762
:10361000B6F8024640F21800C2F2000009C80D4692
:1036200019462B46FCF725FFFDF7BCF8D8F800102B
:10363000024608463146FDF781FAFEF75FF9054676
:10364000FEF76EF9281A00EBD0704010FDF73EF837
:103650002146FCF7F7FDFDF765F802F0B3FC40F2F8
:10366000281040F2D801C2F20000C2F2000109683D
:103670000068FFF749FF40F22410C2F20000076023
:10368000BDE8F0812DE9F041064640F2E600C2F2C5
:103690000000B0F9000040F2041814460D46C2F2D2
:1036A0000008FDF713F80021C4F2C821FCF702FE60
:1036B000FDF738F807463046FDF761F8024640F25C
:1036C0001800C2F2000009C80E4619463346FCF73E
:1036D0002FFEFDF767F8D8F8001002460846394675
:1036E000FDF72CFAFEF70AF90646FEF719F9301A2B
:1036F00000EBD0704010FCF7E9FF2946FCF750FDC5
:10370000FDF710F802F05EFC40F2281040F2D801FC
:10371000C2F20000C2F2000109680068FFF7F4FE7F
:1037200040F22410C2F200000460BDE8F081000005
:10373000002808BF704740F2DD02C2F20002127892
:103740004EF210014FF47A73CEF2000102FB03FC3B
:10375000002300BFC1F804C08B600A6842F0010278
:103760000A6000BF0A6802F00112012AFAD00A6852
:10377000013822F001020A608B60EBD17047000033
:10378000002808BF704740F2DD01C2F200010A784C
:103790004EF21001CEF200015043486000208860D4
:1037A000086840F001000860086800F00110012876
:1037B000FAD0086820F00100086000208860704797
:1037C0002DE9F04F81B00E4640F2100140F2000AA0
:1037D000C2F20001CCF2702AD1E900985146FCF700
:1037E000DFFCFCF7CCFF834640F20800C2F2000089
:1037F000D0E900570C4630465146FCF7D1FCFCF7A7
:10380000BEFF02460B4628463946FCF738FE054601
:103810000E46484641465A462346FCF730FE2A46A5
:103820003346FCF785FDFCF7BDFF0025C4F2962565
:1038300029460446FCF72EFF58B90021CCF2962108
:103840002046FCF719FF2546002804BF0025CCF2CE
:103850009625284601B0BDE8F08F00002DE9F04123
:1038600086B004464CF60220C0F6E3100DF10205C6
:10387000CDF80200682004212A4602F00FFBA320A5
:103880006FF03F018DF8020014F0400608BF6FF0A2
:103890005C016FF037026FF03D0308BF6FF05C0210
:1038A00008BF6FF05C038DF803106FF03B018DF8DB
:1038B00004208DF8053014F4C07708BF6FF05C0168
:1038C0006FF033026FF0390308BF6FF05C0208BF7E
:1038D0006FF05C038DF806104AF2A3318DF80720D3
:1038E000ADF809108DF80B0040F6A7200A212A46F2
:1038F0008DF8083002F0D2FA202014F0030808BF37
:103900006FF027008DF8020040F6B62001212A460C
:1039100002F0C4FAA0060CD4C7208DF8140048F6B3
:10392000B000CCF2C35004904AF6B820CAF6AA20E0
:103930000BE05D208DF8140049F6B400C3F20D5081
:1039400004904AF6B820C8F6B350039003AA4FF487
:103950009760092102F0A2FA2FB36FF04D016FF0CA
:10396000740214F4807008BF6FF04F0108BF6FF04D
:103970007F026FF049036FF0640508BF6FF04B03DF
:10398000002808BF6FF06F058DF802108DF8032036
:103990000DF1020240F6A22004218DF804308DF8CA
:1039A000055002F07BFAE00708D1D8208DF802001C
:1039B0000DF102024FF40B60012150E0F8208DF868
:1039C00002000DF102024FF40B60012102F066FAD1
:1039D0000720FA2100F058FA3F208DF80C0003AAC6
:1039E0004FF4A470012102F059FA00208DF80C0068
:1039F00003AA40F24F10012102F050FA4FF4A050F8
:103A0000ADF80C0003AA4FF4EF70022102F046FA61
:103A10004FF4C840ADF80C0003AA4FF4ED7002213A
:103A200002F03CFA48F60060C9F2F900039003AADC
:103A30004FF4AE70042102F031FA4FF40060ADF89B
:103A40000C0003AA4FF4AD70022102F027FA4FF4E4
:103A50000070ADF80C0003AA4FF4AC70022102F024
:103A60001DFAA0076FF0260058BF6FF027008DF8F1
:103A700002000DF1020240F23D70012102F00EFA47
:103A8000600752BF4FF08B304CF2C020CCF2C460C4
:103A9000039003AA40F69820042102F0FFF901F0F8
:103AA0009DFCE00652BF4FF0A33042F62000C3F663
:103AB0003000039003AA40F69E20042102F0EEF9A4
:103AC00001F08CFC40F2D00144F00800C2F2000189
:103AD000088001F083FC002E18BF0626002F40F25C
:103AE000D60018BF0636C2F2000014F0140F06709C
:103AF00002D0017810310170B8F1000F02D00178C6
:103B000004310170002006B0BDE8F08147F22A417F
:103B1000C0F6000140F6F6304FF48062C82301F091
:103B20005FBA00002DE9F04F89B01446DDE912922A
:103B300088460021A9F8001040F2D601C2F2000127
:103B400009780DF1040A8346084651461E4601F0E5
:103B5000EFFB20B14FF0FF3009B0BDE8F08F40F22D
:103B6000D007C2F20007388810F0140F4CD09DF82F
:103B7000051000969DF80400BDF8066009049DF844
:103B8000093041EA006031BA40EA11419DF808204D
:103B900021601904BDF80A3041EA02611ABA41EA0B
:103BA000124262609DF80D209DF80C30BDF80E6049
:103BB000120442EA036233BA42EA13430914A360CF
:103BC0009DF81130001449439DF8106000FB00106F
:103BD0001B04111443EA066301FB0100BDF81250F7
:103BE000191401FB01002EBA6FF0885143EA164503
:103BF00046184FF6FE70CFF6FF508642E56005D8B6
:103C000001F0ECFB002005E000200BE0B9F800001B
:103C100040F480706FF000718E42A9F8000099D3D3
:103C2000009E102039884A062BD540F001031AF86F
:103C300000201AF80330374643EA022240F002031C
:103C400040F003061AF803301AF80660A8F80020BE
:103C500046EA032240F0040340F005061AF8033058
:103C60001AF80660A8F8022046EA0322A8F8042001
:103C7000B9F800203E4640F0060042F00802A9F8DC
:103C8000002011F4C07F18D03AF800200AEB00039E
:103C900012BA5F88120CABF800203ABA9B88120C5B
:103CA000ABF802201ABA120CABF80420B9F80020C5
:103CB000063042F07002A9F8002089071CD00AEBF8
:103CC00000056878EC78C0070BD040F2C400C2F25F
:103CD000000002682AB104F00700411CC4F3C200CE
:103CE00090476878000707D540F2C800C2F200008C
:103CF000016809B1A0098847304600F0ADFE0020F8
:103D000009B0BDE8F08F000010B586B004464AF651
:103D1000BB70CDF6DF7005904FF2AA10CDF6DF70C4
:103D200004904FF2FE20CCF2AB40C82C039016D882
:103D3000C820B0FBF4F0002101388DF804108DF894
:103D4000050001AA40F21620022102F0A7F830B9BE
:103D500003AA40F6C1200C2102F0A0F818B14FF0E0
:103D6000FF3006B010BD40F2D400C2F20000048063
:103D7000002006B010BD0000B0B582B0054646F682
:103D80001361C0F60001C5F3C10300F00300CC5C71
:103D90000A5C8DF8054046F610648DF80420C5F3E2
:103DA0008112C0F60004895C205C8DF806108DF845
:103DB0000000E05CA15C8DF801008DF8021001AA02
:103DC00040F22640032102F069F8A0BB6A4640F2A7
:103DD0002A40032102F062F868BB76208DF80600C5
:103DE00045F23660ADF8040044F22660ADF80000FC
:103DF000662069078DF8020021D4A8062DD4E805B5
:103E00000BD59DF806009DF8021040F001008DF8DA
:103E1000060041F001008DF8020001AA4FF488600D
:103E2000032102F03BF830B96A4640F231400321E9
:103E300002F034F800B34FF0FF3002B0B0BD9DF88F
:103E400004009DF8001040F001008DF8040041F0DE
:103E500001008DF80000A806D1D59DF805009DF859
:103E6000011040F001008DF8050041F001008DF8CF
:103E70000100E805C5D4D0E740F2CC00C2F2000052
:103E80000580002002B0B0BDF0B583B00446B1F5A6
:103E9000C86F4FF0FF3053D814F0070250D00846D7
:103EA000FCF71DFC0021C4F24831FCF703FA05467B
:103EB0000DF1070000F08CFF9DF8070002384FEA73
:103EC0007002072A4FF0FF303AD80026C4F240664D
:103ED0004FF08D41DFE802F01504340A3434341019
:103EE0000026C4F2C0564FF08C410AE00026C4F20E
:103EF00040564FF08B4104E00026C4F2C0464FF01C
:103F00008A412846FCF7A4F9074628463146FCF7C3
:103F10009FF9FCF707FC05463846FCF703FC010A4D
:103F20008DF80900280A8DF80A00E0078DF80810BE
:103F30008DF80B5006D1A00714D4600722D40020BE
:103F400003B0F0BD02AD4FF4EA7002212A4601F041
:103F5000A5FF38BBAA1C4FF49270022101F09EFF0E
:103F600000BBE8E702AD4FF4EC7002212A4601F0F5
:103F700095FFB8B9AA1C4FF49470022101F08EFF8E
:103F800080B9DAE702AC4FF4EE700221224601F06C
:103F900085FF38B9A21C4FF49670022101F07EFF14
:103FA0000028CCD04FF0FF3003B0F0BDB0B543F6E1
:103FB0000005C4F201050446C1B22846FFF79EFA87
:103FC00028468021FFF704FA0028F9D02046B0BD2A
:103FD0002DE9F04784B040F2600705460120C2F2A7
:103FE00000070C46ADF80400D7E90010164600782B
:103FF000897C01AB0222FEF7F9F810B14FF0FF37D0
:104000008DE1C820FFF794FB00208DF80400D7E96C
:10401000001001AB0078C97B0122FEF7E7F810B170
:104020004FF0FF377BE1D7E9001001AB0078497909
:104030000122FEF7DBF810B14FF0FF376FE1D7E94F
:10404000001001AB0078897C0122FEF7CFF810B197
:104050004FF0FF3763E1D7E9001001AB0078C97D6D
:104060000122FEF7C3F810B14FF0FF3757E1D7E94F
:10407000001001AB007809790122FEF7B7F810B102
:104080004FF0FF374BE10C208DF80400D7E900100A
:1040900001AB007809790122FEF7A8F810B14FF0C2
:1040A000FF373CE10F20FFF743FBB86A3968407ADD
:1040B0007A688DF804001078897801AB0122FEF748
:1040C00095F810B14FF0FF3729E1B86A3968007AE6
:1040D0007A688DF804001078497801AB0122FEF768
:1040E00085F810B14FF0FF3719E1B86AD7E900122F
:1040F000807A002E18BF40F0E0008DF804001078A0
:10410000897901AB0122FEF771F810B14FF0FF374A
:1041100005E126B1B86AC07A60F01F0000E01820FF
:104120008DF80400D7E9001001AB0078C9790122AD
:10413000FEF75CF810B14FF0FF37F0E016B1C82081
:10414000FFF7F6FA40208DF80400D7E9001001AB24
:10415000007809790122FEF749F810B14FF0FF37D6
:10416000DDE078208DF80400D7E9001001AB00787D
:1041700049790122FEF73AF810B14FF0FF37CEE04F
:104180003220FFF7D5FA00208DF80400D7E900109F
:1041900001AB007849790122FEF728F810B14FF001
:1041A000FF37BCE0D7E9001001AB0078897A022222
:1041B000FDF7EAFF10B14FF0FF37B0E0BDF80400A3
:1041C0004AF6AB2100BA000C4843C0F3C7480021AF
:1041D000B8F1000FC5E90011A960C4E90011A160A0
:1041E00042D0C00C00260DF104095FFA80FAD7E92D
:1041F00000100C220078C97A4B46FDF7C5FF002855
:1042000040F08B80BDF80400BDF80610BDF8082012
:1042100090FA80FCD4E9003009BA92FA82FEA268D2
:1042200003EB2C4300EB214002EB2E41C4E90030AC
:10423000BDF80A00A160BDF80C1090FA80FCBDF832
:104240000E20D5E9003009BA92FA82FEAA6803EB83
:104250002C4300EB21400136C5E90030F0B202EBFF
:104260002E415045A960C2D395E841028322C1176F
:10427000090441EA1041000400230027FBF752FF24
:1042800042460023FBF74EFF2860F017000440EA87
:104290001641300483220023FBF744FF42460023EB
:1042A000FBF740FF68604FEAE970000440EA1941FB
:1042B0004FEA094083220023FBF734FF42460023E4
:1042C000FBF730FFA860D4E90006A568C1174901D3
:1042D00041EAD061400142460023FBF723FF206002
:1042E000F017400140EAD661700142460023FBF717
:1042F00019FF6060E817400140EAD5616801424655
:104300000023FBF70FFF4FF480310028C4BF0021CA
:10431000CFF6FF710844A06001E04FF0FF37384648
:1043200004B0BDE8F087000090F9001000290DDD11
:10433000002190F90320002A0FDD002290F90630B9
:10434000002B11DD002011430843704713D490F96E
:104350000110002916DD0121EBE70ED490F90420AD
:10436000002A16DD0822E9E709D490F90730002B6E
:1043700016DD4020E7E70421DBE72022DEE74FF4EB
:104380008070E0E713D490F90210002916DD0221B5
:10439000CFE70ED490F90520002A14DD1022CDE7D6
:1043A00009D490F90800002812DD8020CBE7052110
:1043B000BFE72822C2E74FF4A070C4E74FF0060120
:1043C00008BF0721B5E74FF0300208BF3822B5E734
:1043D0004FF4C07008BF4FF4E070B4E74FF41640DC
:1043E000FEF792FFFCF782FB0FF2686201200121C9
:1043F000FEF770F940F2041740F2281840F2B405B5
:1044000040F2E40640F2E60940F2940A40F2141445
:1044100040F29E0BC2F20007C2F20008C2F2000591
:10442000C2F20006C2F20009C2F2000AC2F200049F
:10443000C2F2000B17E000BF0020FDF78DFF002047
:10444000FDF7A0FFD8F8000040F2D801C2F2000149
:10445000086040F224110020C2F200010860FDF75C
:104460004DFAFDF75DFA40F210113846C2F2000134
:10447000424600F03FFB90B940F2B00040F2B2017A
:10448000C2F20000C2F200012A46FDF715FD40F21B
:10449000E80230464946C2F20002FDF72DFD3868B9
:1044A000FCF76DF940F21802C2F200020CCAFBF7E9
:1044B000E0FFFCF777F90021C4F22011FBF7C8FEFA
:1044C000FCF730F9024601200C210323FEF7BEF869
:1044D00040F28C00C2F2000000683828ACD040F2F4
:1044E0001811C2F2000109680C29BCD340F20C1269
:1044F000C2F200021168E1B1481E21781060481E26
:10450000207079B99BF802005A2801D0102806D1F2
:10451000D8F8000040F2D801C2F200010860002083
:104520008BF8020040F218110020C2F2000108606E
:1045300099E7A0F13101032935D8DFE801F00268DD
:10454000A1E402204546FEF727FA40F22011C2F20C
:1045500000010868B0F1FF3FDCBF0130086040F2A5
:104560005C00C2F20000B0F800A05046FCF7CDF8A5
:1045700000230022C3F6E873FBF781FFFCF712F972
:1045800083460AEB4A00FCF7A1F880464FF4C87056
:104590000AFB00F0FCF79AF8024658464146FFF73E
:1045A00071F8A8465FE040F22012C2F200021168E2
:1045B0000129C0F27D8102201446FEF7EDF940F298
:1045C0005C00C2F2000005882846FCF79EF8002334
:1045D0000022C3F6E873FBF752FFFCF7E3F88146CD
:1045E00005EB4500FCF772F806464FF4C8706843C7
:1045F000FCF76CF8024648463146FFF743F820685E
:104600000138206040F2900BC2F2000BC8E002209B
:10461000FEF7C2F940F22011C2F200010868012839
:10462000A4BF0138086040F25C00C2F200000788B5
:104630003846FCF76AF800230022C3F6E873FBF75C
:104640001EFFFCF7AFF8054607EB4700FCF73EF806
:1046500006464FF4C8707843FCF738F802462846FF
:104660003146FEF7B9FF40F2900B40F2940940F258
:104670000417C2F2000BC2F20009C2F2000790E078
:1046800040F220110020C2F2000108600120FEF774
:1046900083F9B9F90000FCF719F80021C4F2C82128
:1046A000FBF708FEFCF73EF840F21801C2F20001E9
:1046B000D1E9002105461046FCF774F83968024636
:1046C00008462946FCF73AFAFDF718F90546FDF7C2
:1046D00027F9281A00EBD070401001F073FC40F26B
:1046E000900BC2F2000BDBF800000021CCF27A4103
:1046F000FBF756FDDAF80010CBF800000846002161
:10470000C4F27A4141E040F220110020C2F20001DF
:1047100008600120FEF740F9B9F90000FBF7D6FF69
:104720000021C4F2C821FBF7C5FDFBF7FBFF40F2F7
:104730001801C2F20001D1E9002105461046FCF73C
:1047400031F83968024608462946FCF7F7F9FDF7C3
:10475000D5F80546FDF7E4F8281A00EBD0704010B4
:1047600001F030FC40F2900BC2F2000BDBF80000CD
:104770000021C4F27A41FBF713FDDAF80010CBF800
:10478000000008460021CCF27A41FBF709FDD8F879
:104790000010CAF8000040F2D800C2F20000016028
:1047A000D146FDF7B9FA40F21C1AC2F2000ADAF853
:1047B00000003D680021471C2846C4F27021FBF729
:1047C00069FF002106462846CCF27021FBF746FF20
:1047D000002818BF3846002E18BF3846DBF80010F6
:1047E000CAF800000846FBF79DFFFDF7B5FDD9F8B4
:1047F0000000FBF797FFFDF7C5FD40F23800C2F25D
:1048000000000068FBF7A7FF0246012001210323F7
:10481000FDF7E2FE40F28C00C2F2000002680220C6
:1048200001210823FDF712FFFDF768F80246032077
:1048300001210623FDF70AFFFDF772F8424204202A
:1048400001210623FDF702FF40F21414C2F2000416
:10485000207840F2B40540F2E40640F29E0B411E7F
:10486000C2F20005C2F20006CA46C2F2000B217075
:1048700078B99BF802005A2801D0102806D1D8F840
:10488000000040F2D801C2F20001086000208BF85D
:10489000020040F218110020C2F2000140F2E609C5
:1048A00040F204170860C2F20009C2F20007DAE51C
:1048B000B1F1FF3F46DD3B284FF0010008BF032068
:1048C000FEF76AF840F2580040F23806C2F20000E3
:1048D000C2F2000601683068FEF772FF40F28C01F8
:1048E000C2F200010D68392D53D104463068002111
:1048F000C4F2F021FBF7C0FE00284AD12046FBF7A6
:104900003EFF49F69A1249F69913C9F69912C3F671
:10491000A97305460E46FBF7B2FDFBF743FF43F2D2
:1049200033338146284631464FF03332C3F6C373E2
:10493000FBF7A5FDFBF736FF014648460022FEF7D0
:10494000A1FE5FE602201446FEF726F840F25C0066
:10495000C2F2000005882846FBF7D7FE002300229C
:10496000C3F6E873FBF78BFDFBF71CFF814605EBF5
:104970004500FBF7ABFE06464FF4C8706843FBF7F3
:10498000A5FE024648463146FEF77CFE206801300F
:1049900037E6612D12DCA5F1220015281CD8DFE8CE
:1049A00000F00B29292929292929292929292929F7
:1049B00029292929291F0B1D042016E0A72D05DC14
:1049C000622D0FD0A22D15D101200EE0A82D0BD005
:1049D000E02D0FD1072008E0022D0BD1052004E0C7
:1049E000032002E0022000E0082040F25C01C2F255
:1049F00000010880B9F90000FBF768FE0021C4F24D
:104A0000C821FBF757FCFBF78DFE40F21801C2F2FC
:104A10000001D1E9002105461046FBF7C3FE3968C5
:104A2000024608462946FCF789F8FCF767FF054669
:104A3000FCF776FF281A00EBD070401001F0C2FAA4
:104A400040F2D800C2F200000168D8F80000FEF77A
:104A50005BFDD7E54F4B000070470000F0B581B01B
:104A600040F26005C2F2000595F8241019B1002447
:104A7000204601B0F0BDA97AF9B100F0FE07394037
:104A80002E7CCC1B287D18BF4FF0FF34002F2974DB
:104A900008BF002814D0687C10BB01208DF80200EC
:104AA000D5E900100DF102030078C97B0122FDF762
:104AB0009DFBA8B99DF8020011E04FF0FF34D7E745
:104AC00000208DF80300D5E900100DF103030078F4
:104AD000C97B0122FDF78AFB10B99DF803006874B9
:104AE000002FC5D000F07AFC00281CBF2E744FF0B8
:104AF000FF34BDE72DE9F04F8FB005460DF12A00D8
:104B000014460E460DF1290700900DF132000BA955
:104B100006AA0EAB0197FFF705F818B101200FB0F8
:104B2000BDE8F08FBDF82A00C00503D402200FB005
:104B3000BDE8F08F06980594079C0496DDE90867A8
:104B4000FBF7C4FD4FF04251FBF782FB8046204645
:104B5000FBF7BCFD4FF04251FBF77AFB8346304632
:104B6000FBF7B4FD4FF04251FBF772FB04463846A9
:104B7000FBF7ACFD4FF04251FBF76AFB814658460C
:104B80004FF04041FBF764FB824640464146CDF87A
:104B90000C80FBF705FB21468046FBF759FB0646D8
:104BA00050464946FBF754FB3146FBF7F9FAFBF751
:104BB000E6FD01F065FD4AF26663C4F24C034FF076
:104BC0006632FBF75CFCFBF7EDFD286020462146D2
:104BD000FBF7E6FA064640465946FBF739FB054621
:104BE00030464946FBF734FB2946FBF7D9FAFBF779
:104BF000C6FD05460F4620463146FBF729FB064613
:104C000050465946FBF724FB3146FBF71BFB4FF0A0
:104C10007E51FBF7C5FAFBF7B2FD02460B4628466C
:104C2000394601F075FF4AF26668C4F24C084FF04D
:104C300066324346FBF723FCFBF7B4FD0499039F60
:104C4000086038464946FBF703FB054658462146AF
:104C5000FBF7FEFA2946FBF7A3FA0146FBF7A0FA99
:104C6000FBF78DFD05468A4658465946FBF7F0FA94
:104C7000064638463946FBF7EBFA3146FBF790FA21
:104C8000064620462146FBF7E3FA01463046FBF78D
:104C9000D9FA044648464946FBF7DAFA0146204667
:104CA000FBF7D0FAFBF76BFD02460B462846514650
:104CB00001F02EFF4FF066324346FBF7E0FBFBF7B7
:104CC00071FD0599086000200FB0BDE8F08F00006D
:104CD00070B582B0FDF730F900F096F810B10A20F7
:104CE00002B070BD782001F05DF8000602D001200E
:104CF00002B070BD40F26005C2F2000595F82400D4
:104D000008B1002422E0A87AF0B1697C00F07800B4
:104D10002E7CB0F1780418BF4FF0FF34287479B9B5
:104D200001208DF80700D5E900100DF10703007888
:104D3000C97B0122FDF75AFA10B99DF80700687483
:104D400000F04CFB10B12E744FF0FF34200602D05F
:104D5000022002B070BD642000F0B6FF000602D051
:104D6000032002B070BDFEF7D1FE000602D0042081
:104D700002B070BD40F23D00C2F20000FFF7D4FA6D
:104D8000FEF7FAFF000602D0052002B070BD40F227
:104D90007310FEF763FD000602D0062002B070BD5E
:104DA0006420FEF7B1FF000602D0072002B070BDFC
:104DB00001F0A6F810B1082002B070BD012000F08B
:104DC000DBFEC0B2002818BF092002B070BD000091
:104DD00040F26001C2F200014A7A032A84BF4FF018
:104DE000FF30704740F20243D200C1F2080323FAB9
:104DF00002F20270C97C002904BF002070470178CC
:104E0000490001700020704710B582B040F2600484
:104E10008020C2F200048DF80100D4E900100DF1E9
:104E200001030078897C0122FDF7E0F910B14FF011
:104E3000FF341EE06420FEF77BFC00208DF80100AB
:104E4000D4E900100DF101030078897C0122FDF7FF
:104E5000CDF910B14FF0FF340BE0D4E900100DF1A3
:104E600001030078897D0622FDF78EF920B14FF00D
:104E7000FF34204602B010BD9DF806209DF80200C8
:104E80009DF80410042303EA820261F3410200F05A
:104E90000100111805D001292AD002290ED10020C5
:104EA00027E0D4E900100DF101030078C978012250
:104EB000FDF76AF940B14FF0FF34DAE736A001F0B0
:104EC0000BF94FF0FF34D4E79DF8010000F00F001C
:104ED00004280AD00028E2D148F24700C0F60000BA
:104EE00001F0E4FE4FF0FF34C3E735A001F0DEFE31
:104EF0000120E0744FF6FF70E081FF202074A07461
:104F00004FF0FF30A0600020C4E90500E06120847C
:104F1000C4F8230084F8270018208DF80700D4E98E
:104F20000010012200788979227384F822200DF183
:104F300007030122FDF75AF910B14FF0FF3498E74B
:104F40009DF80700C0082072022000F063FD10B138
:104F50004FF0FF348DE72A2000F07EFE10B14FF0B5
:104F6000FF3486E7322000F0AFFE10B14FF0FF347F
:104F70007FE70020FFF772FD10B14FF0FF3478E7B4
:104F8000002000F083FD10B14FF0FF3471E70020E6
:104F9000002400F007FF6CE7556E737570706F7238
:104FA00074656420736F6674776172652070726FC8
:104FB00064756374207265762025642E0A000000F3
:104FC00048616C662073656E73697469766974797B
:104FD000207061727420666F756E642E0000000090
:104FE0002DE9F04F87B0074600294FF0FF3000F061
:104FF000A78040F26004C2F200040E4694F8251027
:10500000002940F09D809246002F019300F07F80A0
:105010004FF000090DF10A0B1FFA89F0A7EB000809
:10502000B8F1100FA8BF4FF0100835184FF0FF303F
:1050300006B3A17AF1B160685FFA89F11FFA88F2CC
:1050400043891144994299FA89F14FEA1141ADF827
:105050001A1003D94FF0FF3070B166E02168007874
:10506000097E02220DF11A03FDF7C0F800283ED098
:105070004FF0FF30002858D1A07AB8B160685FFACD
:1050800089F11FFA88F243891144994299FA89F10A
:105090004FEA1141ADF81A1008D821680078097E4E
:1050A00002220DF11A03FDF7A1F880B14FF0FF3095
:1050B000D8BB1FFA88F228465946FBF764F8002847
:1050C00041D1C1441FFA89F0B842A5D31FE0D4E909
:1050D00000105FFA88F20078497D5B46FDF754F8CE
:1050E000002818BF4FF0FF300028E2D01DE0D4E9BF
:1050F00000105FFA88F20078497D2B46FDF776F8BC
:10510000002818BF4FF0FF300028B5D00DE09AFA04
:105110009AF0ADF81A00D4E900100DF11A030078E6
:10512000897E0222FDF762F820B14FF0FF3007B010
:10513000BDE8F08F012084F825000198E08400206C
:1051400007B0BDE8F08F6FF0010007B0BDE8F08F49
:1051500070B582B0282802D94FF0FF34E5E040F264
:1051600060050446C2F20005002842D095F82300ED
:1051700001281DD0A87C95F822103222002808BFF3
:1051800030228DF8032029B19DF8030040F0800003
:105190008DF80300D5E900100DF103030078097DB7
:1051A00001220126FDF722F8002808BF85F82360B8
:1051B0002020012C8DF800004CD1A87A0021002875
:1051C0008DF8011000F09680E87A062106288DF807
:1051D000041000F08F80D5E9001001AB00788978C9
:1051E0000122FDF703F8002840F084809DF80400B8
:1051F0007FE095F82300E8B1A87C95F822100028FC
:1052000018BF012040008DF8020029B19DF802006E
:1052100040F080008DF80200D5E900100DF1020386
:105220000078097D0122FCF7E1FF002804BF00207F
:1052300085F823004FF4E060ADF80000D5E90010D8
:105240006B460078897C0222FCF7D0FFB8B34FF0A0
:10525000FF346AE0052C18D8A87A012100288DF8BF
:10526000011047D0E87A062106288DF8051041D0B4
:10527000D5E900100DF10503007889780122FCF7CB
:10528000B5FFB8BB9DF8050033E0142C1AD8A87AF6
:1052900002218DF8011068B3E87A052105288DF800
:1052A000061027D0D5E900100DF1060300788978A3
:1052B0000122FCF79BFFE8B99DF8060019E00024E5
:1052C0002C7532E0A87A03218DF8011090B1E87AAC
:1052D000042104288DF807100CD0D5E900100DF139
:1052E0000703007889780122FCF780FF10B99DF848
:1052F0000700E8729DF801006B46800107308DF8C9
:105300000100D5E9001002220078897CFCF76EFFCD
:1053100010B14FF0FF3408E00820A87201200024EB
:10532000287500202C73FFF799FB204602B070BD52
:105330002DE9F04182B040F26007C2F200070E464C
:1053400097F8241005464FF0FF30E1B3B97AD1B396
:10535000D7E9001014460078897A0DF1060302227D
:10536000FCF712FF28BBBDF8060001BAB5EB114FE0
:1053700002D9002020701CE0796890FA90F84A88E1
:10538000B8EB520F0CD93A680878517C0DF106033E
:105390000122FCF7F9FE60B99DF80600C00615D49D
:1053A000D7E90010EAB20078C97A3346FCF7ECFE80
:1053B00020B14FF0FF3002B0BDE8F081B8FBF5F04E
:1053C00001382070002002B0BDE8F08100F006F83E
:1053D0006FF0010002B0BDE8F081000010B582B0AE
:1053E00040F26004C2F20004A07A00B300208DF8FD
:1053F0000700D4E900100DF107030078C97B0122F2
:10540000FCF7F4FE98B9D4E900100DF10703007819
:1054100049790122FCF7EAFE48B9D4E900100DF100
:105420000703007809790122FCF7E0FE18B14FF07C
:10543000FF3002B010BD94F82400002845D00C20A5
:105440008DF80700D4E900100DF107030078097901
:105450000122FCF7CBFE0028E9D13220FEF768F9E3
:10546000A07A0DF10703C0076FF01F0008BF6FF0AF
:105470003F008DF80700D4E9001001220078097977
:10548000FCF7B4FE0028D2D1607C0DF107030028A0
:1054900018BF012040008DF80700D4E90010012258
:1054A0000078C97BFCF7A2FE0028C0D100208DF84F
:1054B0000700D4E900100DF10703007849790122B3
:1054C000FCF794FE0028B2D145E004208DF80700D7
:1054D000D4E900100DF10703007809790122FCF7E7
:1054E00085FE0028A3D1A07AA17CC0074FF0600000
:1054F00008BF4020002918BF40208DF80700D4E9DC
:1055000000100DF10703007809790122FCF76EFE07
:1055100000288CD13220FEF70BF9607C0DF10703D7
:10552000002818BF01208DF80700D4E900100122DF
:105530000078C97BFCF75AFE00287FF478AFD4E9E5
:10554000001004F11003007849790122FCF74EFEA7
:1055500000287FF46CAF002002B010BD2DE9F04FA1
:1055600097B040F26006C2F2000696F824800D461D
:10557000B8F1000F074602D0002000F0FDFA307AA3
:10558000032808D8FA220B92DFE800F00D02070A80
:105590004FF4FA7006E0002004E04FF47A7001E066
:1055A0004FF4FA600B90707A03280CD840F2024155
:1055B000C000C1F20801F27C21FA00F0002A18BFF5
:1055C000012290400790F07A06281BD800F07F0057
:1055D000411EB1FA81F149090A910621C14001F049
:1055E000010109910E21C14001F0010108911E2124
:1055F000C14001F0010106913E2121FA00F000F0C6
:10560000010008E000200A90002009900020089086
:10561000002006900020B6F80EB096F80AA096F882
:1056200010900024059000BF384629460022FEF75E
:10563000CFFC18B10134012CF6D00224022C0DD07D
:10564000002400BF0FA80CA90122FEF7C1FC18B16D
:105650000134012CF6D00224022C01D100247EE07A
:10566000706816AB00780D210422CDE901BACDE9AE
:105670000398FCF789FD002800F0DB8000264FF03E
:10568000000812ACCBF680764FF0000B0CE000BFA8
:10569000012000FA08F04BEA000B08F10108B8F10C
:1056A000030F04F1040436D00CA955F8280051F872
:1056B0002810401A48BF4042FBF708F84FF05E51EF
:1056C000FAF7C6FDD4F80090824648460021FAF762
:1056D000EFFF68B950464946FAF7ECFD3146FAF754
:1056E0005FFD45F6294120F00040C3F60F610DE053
:1056F00049F69A115046C3F69961FAF7AFFF0028B0
:10570000C6D143F233315046C3F67371FAF798FFAE
:105710000028C2D1BCE740F26000C2F2000040683D
:1057200012AD00780D2103222B46FCF72DFD002839
:1057300000F0D5804FF007085FFA88F0B0FA80F0EB
:1057400044095FEA0B6008BF0234DDF8108040F2C4
:105750006006DDF80C90DDE901BAC2F200064FF6F2
:10576000FF700B99F081FF2030744FF0FF30B06074
:105770000120B1F57A7F307306DAFA290AD0B1F543
:10578000FA7F19D1082008E006D0B1F5FA6F13D1DD
:10579000182002E0002000E010208DF84800D6E933
:1057A000001012AB007889790122FCF71FFD18B9AF
:1057B0009DF84800C0083072B07A40B30798C0B274
:1057C00002384FEA7000072821D8DFE800F004060D
:1057D00020082020200A002004E0082002E01020F9
:1057E00000E018208DF84800707A9DF84810B0EB62
:1057F000D10F0CD0D6E9001012AB0078C979012284
:10580000FCF7F4FC18B99DF84800C0087072B07A33
:10581000002800F0EC800A9808B10120D4E0099833
:1058200008B10220D0E00898002800F0C4800320CE
:10583000CAE09DF858009DF85B301C249DF8591073
:1058400004EAD000C3F3011210449DF85AC08DF849
:10585000550004EAD100C3F3810108448DF85600D5
:1058600004EADC0003F0030145F61D2408440DF1B1
:10587000550912AEC3F684744FF000088DF8570036
:1058800009E000BF0020CBF8000008F10108B8F1E2
:10589000030F3FF4F3AE19F8080006EB880B00285D
:1058A000F0D0A0F1010A5FEA0A600FD041F27B401C
:1058B000C3F6AE602146FAF7CBFCAAF1010A5FEA13
:1058C0000A61F7D14FF0000A04E000BF41F27B40CB
:1058D000C3F6AE60CBF8000009F808A0D5E79DF844
:1058E00048009DF849109DF84A2000F01F008DF8EF
:1058F000480001F01F004EF2543A8DF8490002F0C2
:105900001F000026C3F6857A4FF000088DF84A0084
:1059100008E000BF0120B04048EA00080136032E2D
:105920003FF40AAF0FA957F8260051F82610401A85
:1059300048BF4042FAF7CAFE4FF05E51FAF788FCC2
:10594000A95D044631B3A1F101090021C4F2C811D7
:105950005FEA09600CD000BF08465146FAF778FCB0
:10596000A9F101095FEA09610146F5D14FF000098B
:10597000204605F80690FAF79DFC0021CBF68071D1
:10598000FAF70EFC45F6294120F00040C3F60F61FE
:105990000CE000BF00212046C4F22011FAF75EFEA1
:1059A0000028B7D100212046C4F2D221FAF748FEE0
:1059B0000028B3D1AEE7069808B1042004E00598AA
:1059C00000280CBF062005208DF84800F07A9DF8CD
:1059D000481088420BD0D6E9001012AB00788978C5
:1059E0000122FCF703FC10B99DF84800F0725846FC
:1059F00000F06AF9504600F0D5F94846FFF72EF856
:105A0000B8F1000F02D0012000F0B6F8204617B020
:105A1000BDE8F08F10B582B040F26004C2F200041D
:105A2000A17A41B302384FEA700107294FF0FF30E5
:105A30002AD8DFE801F0040629082929290A0020CC
:105A400004E0082002E0102000E018208DF8070094
:105A5000607A9DF80710B0EBD10F02D1002002B0A0
:105A600010BDD4E900100DF107030078C9790122B7
:105A7000FCF7BCFB18B14FF0FF3002B010BD9DF831
:105A80000700C0086072002002B010BDB0B582B03F
:105A900040F26005C2F20005A97C814202D10020DB
:105AA00002B0B0BD0446D5E900100DF1070300783F
:105AB00009790122FCF768FB84B3002844D19DF8E2
:105AC00007000DF1070300F0DF008DF80700D5E9AE
:105AD0000010012200780979FCF788FBA0BB0320A5
