:020000040800F2
:1000000098080020A90100080D2900089122000885
:10001000A127000895110008613A000800000000BF
:10002000000000000000000000000000B9300008DF
:100030009911000800000000E52F0008D5300008E5
:10004000C3010008C3010008C3010008C301000880
:10005000C3010008C3010008C3010008C301000870
:10006000C3010008C3010008C3010008C301000860
:10007000C3010008C3010008C3010008C301000850
:10008000C3010008C3010008C3010008C301000840
:10009000C3010008C3010008C3010008C301000830
:1000A000C3010008C3010008C3010008C301000820
:1000B000093200083132000855320008C301000837
:1000C000C3010008C3010008C3010008C301000800
:1000D000C301000839380008C3010008C301000843
:1000E0009D110008C3010008C301000800F002F8D8
:1000F00000F04AF80AA090E8000C82448344AAF178
:100100000107DA4501D100F03FF8AFF2090EBAE875
:100110000F0013F0010F18BFFB1A43F0010318473B
:100120001894000038940000103A24BF78C878C1B1
:10013000FAD8520724BF30C830C144BF04680C60ED
:10014000704700000023002400250026103A28BF35
:1001500078C1FBD8520728BF30C148BF0B60704739
:10016000642900F0AF80782900F0E8800020704713
:100170001FB59DE8030000F031FD00F021FB1FBD1D
:1001800010B500F086FB10BD00F0BAFB1146FFF77A
:10019000EFFF04F0D1FB00F0C1FC03B4FFF7F0FF68
:1001A00003BC00F099FE0000094880470948004759
:1001B000FEE7FEE7FEE7FEE7FEE7FEE7FEE7FEE717
:1001C000FEE7FEE704480549054A064B7047000074
:1001D000D9300008ED00000898020020980800209F
:1001E000980400209804002053EA020C23D010B594
:1001F0004C1084EA530404D54042C1F1000138BFD9
:10020000491E1B4204D55242C3F1000338BF5B1E96
:1002100000F0C8F914F0804F04D04042C1F1000151
:1002200038BF491E14F0004F04D05242C3F10003FE
:1002300038BF5B1E10BD13B540424FF0000070EB9D
:100240000104B8BF012001F0004100281CBF6FF07D
:1002500000414FF0FF30AFF300801CBD0FB40449E4
:1002600010B503AA029800F079FA10BC5DF814FBEF
:10027000EC00002070B5044685690068C10601D510
:10028000302600E02026C00707D070BDD4E9012148
:1002900030469047206A401C20626D1EF6D570BD26
:1002A00070B5044685690078C00707D170BDD4E9F0
:1002B000012120209047206A401C20626D1EF6D547
:1002C00070BD00002DE9F041064600241068752934
:1002D000314616A510D0AFF30080002802DA404264
:1002E00013A507E031688A0701D512A502E0490786
:1002F00004D511A5012401E0AFF3008000210A22FA
:1003000006F1240709E0B0FBF2FCB0FBF2F302FBBC
:100310001C00303078541846491C0028F3D123467D
:100320002A463046BDE8F04100F0BFB900000000A9
:100330002D0000002B0000002000000070B50446D6
:100340000D4621461068AFF300802188090502D5CB
:100350000F4A7A4402E00E4A7A440E32002104F138
:10036000240305E000F00F060009965D5E54491C69
:100370000028F7D120780023000704D5702D02D083
:1003800009B1022311322046BDE8704000F08DB95A
:10039000FC7D00002DE9F05F894604464FF0000A1D
:1003A000DFF824B1FB44C0F820A02046E16888476C
:1003B00000287DD0252806D0D4E901219047206A65
:1003C000401C2062F1E700255F462046E16888472F
:1003D0002028064607DB312E05D2B81910F8200C6C
:1003E00008B10543F1E7A80701D525F00405C4F8D5
:1003F0001CA00027C4F818A02A2E09D0304606F009
:1004000095F938B304EB8708303EC8F8186019E056
:1004100059F8041B204604EB87029161E168884784
:10042000012F064618D1E069002820DA25F02005C2
:100430001DE0D8F8180000EB800006EB40003038D3
:10044000C8F818002046E1688847064606F06EF9AD
:100450000028EED1012F0AD02E2E08D12046E168C7
:1004600088477F1C0646022F45F02005C4DBA069A3
:10047000002803DA404245F00105A061E80701D0F9
:1004800025F01005A6B1A6F14100192802D82036A2
:1004900045F400654A463146204625604D46FFF743
:1004A0005FFE60B1012807D0ED1D25F0070000E0D8
:1004B00007E000F1080978E705F1040975E730461F
:1004C0007AE7206ABDE8F09FD27D000010B50446AF
:1004D00003E004F019F8401C09D014F8010B054999
:1004E0000028F6D1BDE810400A2004F00DB84FF006
:1004F000FF3010BDEC00002040EA010310B59B075F
:100500000FD1042A0DD310C808C9121F9C42F8D07D
:1005100020BA19BA884201D9012010BD4FF0FF302E
:1005200010BD1AB1D30703D0521C07E0002010BD44
:1005300010F8013B11F8014B1B1B07D110F8013BD0
:1005400011F8014B1B1B01D1921EF1D1184610BDB1
:100550004FF0000200B5134694469646203922BF5C
:10056000A0E80C50A0E80C50B1F12001BFF4F7AFA7
:10057000090728BFA0E80C5048BF0CC05DF804EB89
:10058000890028BF40F8042B08BF704748BF20F8F7
:10059000022B11F0804F18BF00F8012B70477047F5
:1005A0007047704753EA020C00F069802DE9F04B68
:1005B0004FF00006002B1FBFB3FA83F503FA05F4D2
:1005C00024FA05F65E4012BF1643B2FA82F502FA2B
:1005D00005F4C5F120051EBF22FA05FC44EA0C040F
:1005E000203556EA044C4FEA144418BF641C4FF0FF
:1005F00000084FF00009904271EB030C39D3002939
:1006000019BFB1FA81F701FA07F6B0FA80F700FADC
:1006100007F6C7F120071EBF20FA07FC46EA0C06C2
:100620002037B6FBF4FCA7EB0507103F07F01F0BC4
:10063000CBF120062CFA06F60CFA0BFB44BFB346AE
:100640000026202FA4BF5E464FF0000B5BEA060C8D
:1006500008BF4FF0010B19EB0B0948EB0608ABFB89
:10066000027C06FB02CC0BFB03CCC01B71EB0C0124
:10067000C1E70B46024641464846BDE8F08B13B53C
:10068000084318BF4FF0FF300146AFF30080BDE8CC
:100690001C40704710B500F073F8006810BD10B52D
:1006A000044600F06DF8046010BD2DE9F0470D46DA
:1006B00099469246044600F124080168880604D54C
:1006C000E06921F01001216000E00120A84201DD75
:1006D000471B00E00027A1697A1902EB0900081AFC
:1006E000A0612078C00602D42046FFF7C3FD002693
:1006F00008E0D4E901211AF806009047206A401C5E
:10070000761C20624E45F4DB2078C0060AD52046D0
:10071000FFF7B0FD06E0D4E9012130209047206AC0
:10072000401C2062381EA7F10107F4DC07E0D4E981
:10073000012118F805009047206A401C2062281EFD
:10074000A5F10105F3DC2046FFF7AAFD207800069D
:1007500002D50220BDE8F0870120FBE7074B70B50A
:100760000D467B4400F015F80446284600F024F8B6
:1007700010B14FF0FF3070BD204670BDA33D0000AA
:10078000004870479401002001694A1C0261087802
:10079000704700B58FB0CDE90131002105910549C1
:1007A0007944CDE9031011466846FFF7F3FD0FB019
:1007B00000BD0000E5FFFFFF007B00F080007047F8
:1007C00010B542485421FFF7C3FE41485421FFF7BA
:1007D000BFFE40485421FFF7BBFE3F493B483C4A1F
:1007E0003F4B08603D490A603A491960531C036554
:1007F000481C1065012008653B48344A39A17844FB
:1008000000F0EEF820B9384878440A3800F08FF943
:1008100037482F4A35A1784400F0E2F820B934482F
:1008200078440A3800F083F932482A4A2FA17844E4
:1008300000F0D6F820B92F4878440A3800F077F94C
:1008400040232248DC000021224600F0A5F820B118
:1008500025487844543800F06AF91D482246402360
:10086000002100F099F820B121487844543800F074
:100870005EF9184822461023002100F08DF8002868
:1008800006D01C487844BDE81040563800F04FB9F7
:1008900010BD104870B5006D20F001040B4800F049
:1008A00017F90B4800F014F90A4800F011F909E0B3
:1008B000206D20F00105204600F00AF9204600F0E6
:1008C00044F82C46002CF3D170BD000098000020A5
:1008D000EC00002040010020000000200400002067
:1008E00008000020720000007E7A000077000000FF
:1008F0006A7A0000567A0000004870479401002090
:100900007546FFF7F9FFAE4605006946534620F0ED
:100910000700854618B020B5FFF754FCBDE820401D
:100920004FF000064FF000074FF000084FF0000BAB
:10093000AC46ACE8C009ACE8C009ACE8C009ACE81A
:10094000C00921F007018D46704770B50446051FA8
:1009500000F028F90068002C14BF446870BD002C1A
:1009600018BFAC423CBF20466468F8D301680A183F
:10097000AA4218BF456003D12A68054611440160A8
:1009800028684119A1421CBF6C6070BD6168696034
:1009900021680844286070BD70B5C468A50713D0ED
:1009A000650211D4B2F5807F09D0B2F5007F06D080
:1009B000B2F5806F08D1012300F1240106E05D1E2D
:1009C0006FF07F46B54201D3012070BD0161C36164
:1009D000416024F470611143C160002070BD0000CB
:1009E0002DE9F0410C461646070047D0104600F0AE
:1009F0006FF82078611C61280AD0722802D077280D
:100A00003CD102E00125002405E00225042402E097
:100A1000082448F2020511F8010B2B2806D06228A1
:100A200009D011F8010C74280AD00BE045F0030539
:100A300044F00204EFE745F0040544F00104EAE75E
:100A400044F010043846214600F078F8411C15D0D7
:100A50000021316171604FF40071F560F1617061E6
:100A6000200704D530460222002100F015F9306D30
:100A700040F0010030653046BDE8F0810020FBE722
:100A80002DE9F0410D460646104C206DC10704D0FB
:100A9000410804D020F00104F7E722460EE054207C
:100AA00000F0CBF807000ED0206D47F0010108439D
:100AB000542120653846FFF74BFD3A46294630461B
:100AC000BDE8F0418CE70020D6E700009800002048
:100AD0002DE9F04704464FF0FF380026C568D4E9F9
:100AE0000497A80718D0204600F092F9384600F085
:100AF0002FF8002800DA4646280502D54846FFF7B9
:100B000024FF4C212046FFF723FD206D20F001003B
:100B100020653046BDE8F0874046FBE710B5044647
:100B2000AFF300802046BDE81040FFF736BB10B59C
:100B300000F0B8F9BDE8104000F0AEB90EB5CDE94F
:100B4000000100F032FA029069460120ABBE0EBDF2
:100B500008B5694600900220ABBE08BD1FB58DE800
:100B6000070069460520ABBE04B010BD1FB58DE877
:100B70000F0069460620ABBEF6E708B5694600904F
:100B80000920ABBE08BD1CB5CDE9000169460A20AD
:100B9000ABBE1CBD704708B5694600900C20ABBECB
:100BA00008BD0000004870479C0100207047704756
:100BB0007047704738B504460A4600206946AFF3CF
:100BC0000080002808BF38BD02460099204600F08A
:100BD00091F9012038BD012000F0E0B9F8B5AFF37C
:100BE0000080054600200C46102000BF0646A819CC
:100BF000A0420DD9324669460020AFF300800700BD
:100C000008BF00F0CBF90098A04218BF0546C419F0
:100C1000FFF7C8FF05600746F01D20F007004619E2
:100C2000284600F060F9B44208BFF8BDA21B314667
:100C30003868BDE8F84000F05DB970B50646FFF7CA
:100C4000B1FF056806F10B0020F00704B4429CBF19
:100C5000002070BD2B466A68BAB11068A04210D35C
:100C600004F1080188423CBF5068586007D35168BE
:100C7000101941601168091B016058601460101D53
:100C800070BD13465268002AE7D121462846FFF777
:100C900091FF0028DED170BD2DE9F04104461646D3
:100CA0000D464769007B80072ED03846FFF765FF69
:100CB00050BB3EB3012E02D0022E25D104E02046C7
:100CC00000F032F905441DE03846FFF764FFE168A3
:100CD000002841F01001E16005DA204600F058F8E4
:100CE0000120BDE8F081C9030BD56268E16A914239
:100CF00000D81146A26911442269891A814200DD97
:100D000008460544002D01DA0220EAE7E16A60683E
:100D1000E268814206D29103E06203D522F40031F9
:100D200041F01002A6690027AE4213DCE16A81425D
:100D300001D90B4600E0034603EB060C2369ACEB3C
:100D4000030CAC4506DD814201D98C4600E08446A7
:100D50009C4505D1A760276042F02000A5620DE008
:100D6000AD1BE669AE1B8142A66000D90846C01AD9
:100D7000281A20605819606022F0200003490840BA
:100D8000E060002084F84870ABE70000BFCFD7FFD9
:100D9000C16821F4001141F08001C160002181602F
:100DA000016070472DE9F74F15460C464FF0FF3BA9
:100DB0003848D768D2F814A0074209D05046A9692C
:100DC000FFF7E1FE002819DB3248C0430740EF601F
:100DD0004FF000496FF000484C4501D3464600E013
:100DE000264600993B4650463246FFF7B7FEA969B2
:100DF00020F00042B21A1144A96128B12846FFF739
:100E0000C7FF5846BDE8FE8FA41BE5D10020F9E7D7
:100E100070B504460569C06A6168884200D8084612
:100E2000E16821F42011E160C90312D5A84208D07D
:100E30002246411B2846FFF7B5FF10B14FF0FF30A7
:100E400070BD0020E562C4E90150E06820F4803004
:100E5000E060002070BD10B50446C06820F020009E
:100E6000E060A16AA06988420DD02046FFF7D0FF5C
:100E7000E06820F4405040F01000E060A06AA061FB
:100E80002069E062606044F24001E0688843E0600D
:100E900010BD000010000200002801D000F01CB8B6
:100EA0007047000010B5014602A000F05EF8012076
:100EB00010BD000053494752545245443A205265F0
:100EC0006469726563743A2063616E2774206F7081
:100ED000656E3A200000000001491820ABBEFEE715
:100EE00026000200704700210160C0E90110704730
:100EF00010207047034640688C46002818BF88427F
:100F00003CBF03464068F8D318681844884207D0AD
:100F10000CF1030020F00700001D411A521A01468F
:100F2000081D0A60FFF711BD10B50146C2689007A1
:100F300003D0900607D5886A0AE0FFF721FC01215B
:100F40000160881E10BD8B69486818440B69C01A7F
:100F500091F848301BB191F84910401A10BD1103A7
:100F6000FCD50028FADD401E10BD70B505460C46C4
:100F70000A2000E06D1C00F037F835B12878002811
:100F8000F8D102E0641C00F02FF814B1207800289A
:100F9000F8D1BDE870400A2000F026B810B500F086
:100FA0002BF8BDE81040FFF777BF10B5431C02E0F7
:100FB00010F8011B71B18107FAD14FF0013202C85C
:100FC0008C1A8C4314EAC211F9D0C01A0A0603D055
:100FD000C01E10BDC01A10BD0A0401D0801E10BD75
:100FE0000902FCD0401E10BD08B569468DF800000E
:100FF0000320ABBE08BD000010B5012805D00021BC
:1010000003A0FFF7B2FF012010BD09A1F8E700001F
:1010100053494752544D454D3A204F7574206F66E1
:101020002068656170206D656D6F72790000000049
:101030003A2048656170206D656D6F727920636F2D
:10104000727275707465640080B54FF4A06001F031
:101050008FFC482002F0CAF801F094FC012001F056
:1010600019F901F079F804F0E1F830B10A2002F042
:101070000DFE04F0DBF80028F8D101F093FB00200E
:1010800001F02EFC002001F015FC00F009FFBDE886
:10109000804001F0A5B800002DE9F04F81B08946ED
:1010A00040F27021C2F20001A1F80090114606F052
:1010B00063FF40F22024C2F200042168804606F05B
:1010C00031FC0026C4F2C82631460746206006F0EF
:1010D00099FC08B1266009E00026CCF2C826384603
:1010E000314606F096FC002808BF266040F2580002
:1010F000C2F20000D0E900BA404606F0E7FB044621
:1011000040F25000C2F20000D0E9005748460E46B7
:1011100006F0D4F802460B462846394606F0F8F8A1
:1011200005460F46584651462246334606F0F0F82B
:101130002A463B4605F070FE044640F25820C2F2B3
:101140000000D0E9005640F22020C2F20000006802
:101150000F4606F0BBFB02460B462846314606F01A
:10116000D7F822463B4605F057FE05F023FE40F235
:101170006821C2F20001C1F8008040F2F411C2F20D
:101180000001086040F2F811C2F20001086001B0ED
:10119000BDE8F08FFEE70000704700002DE9F04346
:1011A00081B040F200454FF48040C4F2010500F0E8
:1011B0000FFE002800F041854FF4804000F002FE51
:1011C000286840F2242820F48040286040F238103B
:1011D000C4F22220C2F20008006898F8001040F221
:1011E00053278842C2F2000706D005F5205002F0CE
:1011F000D1F804460120387005F520500021002662
:1012000002F0C2FA3878002800F0178540F2522028
:10121000C2F2000001783E703F2900F2C282DFE88E
:1012200011F04000480054005B0068006F007C0033
:10123000830090009700A400AB00B800BF00CC0072
:10124000D300E000E700F400FB0008010F011C01DF
:1012500023013001370144014B0158015F016C014A
:1012600073018001870194019B01A801AF01BC01BA
:10127000C301D001D701E401EB01F801FF010C0229
:1012800013022002270234023B0248024F025C0292
:1012900063027002770284028B0298029F02AC0202
:1012A000B302A4F5C871642900F2C384012100F0DF
:1012B000C1BCA4F1C801322900F28482022101706C
:1012C000002088F8000000F0B8BCA4F1140128291F
:1012D00000F2AF84032170E2A4F13C01272900F25F
:1012E000808240F24821C2F20001096849000131C0
:1012F00082E2A4F11401282900F29B8405215CE21A
:10130000A4F13C01272900F27E8240F24821C2F27A
:10131000000109684900013180E2A4F11401282983
:1013200000F28784072148E2A4F13C01272900F25A
:101330007C8240F24821C2F2000109684900013173
:101340007EE2A4F11401282900F27384092134E219
:10135000A4F13C01272900F27A8240F24821C2F22E
:1013600000010968490001317CE2A4F11401282937
:1013700000F25F840B2120E2A4F13C01272900F256
:10138000788240F24821C2F2000109684900013127
:101390007AE2A4F11401282900F24B840D210CE219
:1013A000A4F13C01272900F2768240F24821C2F2E2
:1013B000000109684900013178E2A4F114012829EB
:1013C00000F237840F21F8E1A4F13C01272900F253
:1013D000748240F24821C2F20001096849000131DB
:1013E00076E2A4F11401282900F223841121E4E11A
:1013F000A4F13C01272900F2728240F24821C2F296
:10140000000109684900013174E2A4F1140128299E
:1014100000F20F841321D0E1A4F13C01272900F24E
:10142000708240F24821C2F200010968490001318E
:1014300072E2A4F11401282900F2FB831521BCE11A
:10144000A4F13C01272900F26E8240F24821C2F249
:10145000000109684900013170E2A4F11401282952
:1014600000F2E7831721A8E1A4F13C01272900F24B
:101470006C8240F24821C2F2000109684900013142
:101480006EE2A4F11401282900F2D383192194E11A
:10149000A4F13C01272900F26A8240F24821C2F2FD
:1014A00000010968490001316CE2A4F11401282906
:1014B00000F2BF831B2180E1A4F13C01272900F247
:1014C000688240F24821C2F20001096849000131F6
:1014D0006AE2A4F11401282900F2AB831D216CE11A
:1014E000A4F13C01272900F2668240F24821C2F2B1
:1014F000000109684900013168E2A4F114012829BA
:1015000000F297831F2158E1A4F13C01272900F242
:10151000648240F24821C2F20001096849000131A9
:1015200066E2A4F11401282900F28383212144E119
:10153000A4F13C01272900F2628240F24821C2F264
:10154000000109684900013164E2A4F1140128296D
:1015500000F26F83232130E1A4F13C01272900F23E
:10156000608240F24821C2F200010968490001315D
:1015700062E2A4F11401282900F25B8325211CE119
:10158000A4F13C01272900F25E8240F24821C2F218
:10159000000109684900013160E2A4F11401282921
:1015A00000F24783272108E1A4F13C01272900F23A
:1015B0005C8240F24821C2F2000109684900013111
:1015C0005EE2A4F11401282900F233832921F4E01A
:1015D000A4F13C01272900F25A8240F24821C2F2CC
:1015E00000010968490001315CE2A4F114012829D5
:1015F00000F21F832B21E0E0A4F13C01272900F237
:10160000588240F24821C2F20001096849000131C4
:101610005AE2A4F11401282900F20B832D21CCE019
:10162000A4F13C01272900F2568240F24821C2F27F
:10163000000109684900013158E2A4F11401282988
:1016400000F2F7822F21B8E0A4F13C01272900F233
:10165000548240F24821C2F2000109684900013178
:1016600056E2A4F11401282900F2E3823121A4E01A
:10167000A4F13C01272900F2528240F24821C2F233
:10168000000109684900013154E2A4F1140128293C
:1016900000F2CF82332190E0A4F13C01272900F22F
:1016A000508240F24821C2F200010968490001312C
:1016B00051E2A4F11401282900F2BB8235217CE01B
:1016C000A4F13C01272900F24D8240F24821C2F2E8
:1016D00000010968490001314EE2A4F114012829F2
:1016E00000F2A782372168E0A4F13C01272900F22B
:1016F0004A8240F24821C2F20001096849000131E2
:101700004BE2A4F11401282900F29382392154E01C
:10171000A4F13C01272900F2478240F24821C2F29D
:10172000000109684900013148E2A4F114012829A7
:1017300000F27F823B2140E0A4F13C01272900F226
:10174000448240F24821C2F2000109684900013197
:1017500045E2A4F11401282900F26B823D212CE01E
:10176000A4F13C01272900F2418240F24821C2F253
:10177000000109684900013142E2A4F1140128295D
:1017800000F257823F2118E0A4F13C01272940F2E2
:101790004821C2F2000100F23A820A685200013286
:1017A0003BE2412900F0E082402940F04682A4F16A
:1017B0001401282900F23D8241210170012088F89E
:1017C00000003AE2A4F15F0100222829027088F8A3
:1017D000002000F2328240F27C20C2F200000D2193
:1017E000EEE2A4F10A01272900F21F8240F248210B
:1017F000C2F200010968490040F24822C2F2000228
:10180000116004210BE2A4F10A01272900F20D82E4
:1018100040F24821C2F200010968490040F2482222
:10182000C2F2000211600621F9E1A4F10A012729A0
:1018300000F2FB8140F24821C2F200010968490030
:1018400040F24822C2F2000211600821E7E1A4F14F
:101850000A01272900F2E98140F24821C2F2000181
:101860000968490040F24822C2F2000211600A21D0
:10187000D5E1A4F10A01272900F2D78140F24821DD
:10188000C2F200010968490040F24822C2F2000297
:1018900011600C21C3E1A4F10A01272900F2C581DE
:1018A00040F24821C2F200010968490040F2482292
:1018B000C2F2000211600E21B1E1A4F10A01272950
:1018C00000F2B38140F24821C2F2000109684900E8
:1018D00040F24822C2F20002116010219FE1A4F1FF
:1018E0000A01272900F2A18140F24821C2F2000139
:1018F0000968490040F24822C2F200021160122138
:101900008DE1A4F10A01272900F28F8140F24821DC
:10191000C2F200010968490040F24822C2F2000206
:10192000116014217BE1A4F10A01272900F27D81D5
:1019300040F24821C2F200010968490040F2482201
:10194000C2F200021160162169E1A4F10A012729FF
:1019500000F26B8140F24821C2F20001096849009F
:1019600040F24822C2F200021160182157E1A4F1AE
:101970000A01272900F2598140F24821C2F20001F0
:101980000968490040F24822C2F2000211601A219F
:1019900045E1A4F10A01272900F2478140F24821DC
:1019A000C2F200010968490040F24822C2F2000276
:1019B00011601C2133E1A4F10A01272900F23581CD
:1019C00040F24821C2F200010968490040F2482271
:1019D000C2F2000211601E2121E1A4F10A012729AF
:1019E00000F2238140F24821C2F200010968490057
:1019F00040F24822C2F20002116020210FE1A4F15E
:101A00000A01272900F2118140F24821C2F20001A7
:101A10000968490040F24822C2F200021160222106
:101A2000FDE0A4F10A01272900F2FF8040F24821DD
:101A3000C2F200010968490040F24822C2F20002E5
:101A400011602421EBE0A4F10A01272900F2ED80C6
:101A500040F24821C2F200010968490040F24822E0
:101A6000C2F2000211602621D9E0A4F10A0127295F
:101A700000F2DB8040F24821C2F20001096849000F
:101A800040F24822C2F2000211602821C7E0A4F10E
:101A90000A01272900F2C98040F24821C2F2000160
:101AA0000968490040F24822C2F2000211602A216E
:101AB000B5E0A4F10A01272900F2B78040F24821DD
:101AC000C2F200010968490040F24822C2F2000255
:101AD00011602C21A3E0A4F10A01272900F2A580BE
:101AE00040F24821C2F200010968490040F2482250
:101AF000C2F2000211602E2191E0A4F10A0127290F
:101B000000F2938040F24821C2F2000109684900C6
:101B100040F24822C2F20002116030217FE0A4F1BD
:101B20000A01272900F2818040F24821C2F2000117
:101B30000968490040F24822C2F2000211603221D5
:101B40006DE0A4F10A0127296FD840F24821C2F2C2
:101B500000010968490040F24822C2F20002116007
:101B600034215CE0A4F10A0127295ED840F2482123
:101B7000C2F200010968490040F24822C2F20002A4
:101B8000116036214BE0A4F10A0127294DD840F21B
:101B90004821C2F200010968490040F24822C2F21D
:101BA0000002116038213AE0A4F10A0127293CD84B
:101BB00040F24821C2F200010968490040F248227F
:101BC000C2F2000211603A2129E0A4F10A0127299A
:101BD0002BD840F24821C2F200010968490040F2C6
:101BE0004822C2F2000211603C2118E0A4F10A016F
:101BF00027291AD840F24821C2F200010968490099
:101C000040F24822C2F2000211603E2107E0A4F136
:101C10000A02272A09D80A6852000A604021017086
:101C200040F22420C2F2000003E040F25220C2F24F
:101C300000000021017088F80010286840F48040FE
:101C400028604FF4005000F0C3F8002800F08580B1
:101C500048F23410C4F2212004684FF0804001F0B3
:101C600099FB06F041F85CB140F2FC11C2F20001B0
:101C7000086040F20020C2F20000002101806CE008
:101C800040F2FC15C2F20005296806F075F9044619
:101C900040F20020C2F2000000884FF4E1514843B6
:101CA00006F00AF80146204605F03CFE0021C4F289
:101CB000881106F095F80021C4F2615105F0CAFEC2
:101CC00040F24407C2F20007397840F22826C2F2F7
:101CD00000064A1E0029316828603A7003D005F0DA
:101CE00021FE306039E0084605F0F0FD4CF6CD42AB
:101CF0004CF6CC43CCF6CC42C3F6EC7305F008FBB3
:101D00000023C4F2240300224FF0000805F040F93C
:101D100040F26009C2F200090446D9F800000D46FD
:101D200005F0D4FD49F69A1249F69913C9F69912AD
:101D3000C3F6B97305F0ECFA22462B4605F06CF8B1
:101D400005F038F840F24001C2F200010860C9F81D
:101D500000000A203870C6F800804FF4005001B02F
:101D6000BDE8F04300F02EB8A4F13C01272907D8C4
:101D700040F24821C2F200010A685300013309E031
:101D8000A4F10A01272914D840F24821C2F2000127
:101D90000A6853000B600021017040F20221D00953
:101DA000C2F20001887040F27C20C2F200000D21D6
:101DB00000E00021017040F24420C2F20000012145
:101DC00001703AE740F21441C4F201010860704723
:101DD00040F20041C4F201010A684969024008402A
:101DE00018BF0120002A18BF0122104070470000D0
:101DF0008179002940F20041C4F201011FD002683C
:101E00000B6893430B604B6893434B60037943EA41
:101E1000010CDCF800301A43CCF8002002688B6813
:101E200093438B60CB689343CB60407910280ED1ED
:101E3000886810438860C8681043C860704702799A
:101E4000006811430A6822EA0000086070470843EE
:101E50000168114301607047B0B540F20044C4F21C
:101E60000004204601F096FA47F23051451A204608
:101E700047F2305101F088FC2846B0BDB0B540F6BD
:101E80000004C4F20004204601F084FA47F2305105
:101E9000451A204647F2305101F076FC2846B0BD85
:101EA0002DE9F04387B00220012101F09DF80420C4
:101EB00001214FF0040801F0A3F80420012101F0F2
:101EC00093F80820012101F09BF8C02040F2004463
:101ED000C4F60300C4F2000406AD069004F5823097
:101EE000294600F093F8C020ADF8180004F58430BE
:101EF000294600F08BF84FF6FF7003AE04904FF0C8
:101F0000000920463146CDF80C908DF8149001F070
:101F10003DFC04F580652846314601F037FC6E46ED
:101F2000304601F09BFB0F2720463146ADF800906C
:101F3000ADF8087001F042FA20463146ADF8008055
:101F4000ADF8087001F03AFA28463146ADF8009035
:101F5000ADF8087001F032FA28463146ADF800803D
:101F6000ADF8087001F02AFA204603210022002370
:101F700001F0F6F9284603210022002301F0F0F9D0
:101F8000204647F2305101F0FFFB284647F230511E
:101F900001F0FAFB2046012101F0D8F92846012181
:101FA00001F0D4F907B0BDE8F0830000A0F1804053
:101FB000A0F584304FEAB02004288EBF002002A193
:101FC00051F82000704700BF040000000800000026
:101FD00010000000200000004000000010B50C229E
:101FE000082402EA810201F0FC01C4F201044FF06E
:101FF0000F0C51F804E00CFA02F32EEA03030B5124
:102000000B5990401843085110BD00002DE9F047CE
:10201000CA7802F00F0CD30644BF8B784CEA030C4D
:1020200009880B0625D082465AF8144B00F1100E91
:1020300000254FF001094FF00F08002706E000BF10
:102040001E600137082F05F1040511D009FA07F6C3
:102050000E42F6D008FA05F324EA03030CFA05F45D
:102060001C43282A5346EBD0482AEAD17346E7E7B7
:102070000460B1F5807F38BFBDE8F087436800F1A8
:10208000100E00F1140900254FF4807A4FF00F086C
:10209000002705E034600137082F05F1040512D050
:1020A0000AFA07F404EA0106A642F4D108FA05F692
:1020B000B3430CFA05F63343282A4E46EAD0482AA1
:1020C000E9D17646E6E74360BDE8F087B0B5042283
:1020D000C4F20102134602F1180E002848BF7346ED
:1020E0001C6800F44013B3F5401F1FFA80FC06D1B2
:1020F000156824F0706325F07064146015E0C30265
:102100000AD46FF00F0303EA50430CFA03F324EAF6
:10211000030343F0706308E0C0F30343032505FAAB
:1021200003F324EA030343F070636FF00F0404EA3F
:10213000504400290CFA04F518BF2B43002848BF6F
:1021400072461360B0BD0000016170471023002A81
:1021500008BF1423C150704770B586B0112001210B
:10216000012500F04DFF42F600444820C4F201046E
:102170004FF480468DF80F00A4F5E05003A9ADF8A8
:102180000C60FFF743FF02200E21FFF727FF4FF4FB
:102190000060012100F034FF4FF6FF70049040F220
:1021A0009F50039000208DF8140003A9204601F0F1
:1021B000EDFA2046012101F0C9F84FF48050ADF846
:1021C0000400684600968DF80650FFF711FE28209F
:1021D000C0F20210029002A800F09AFB06B070BD97
:1021E000F0B585B040F60044C4F201042046FFF784
:1021F000DDFE05462046FFF7D9FE284301210126D2
:1022000000F0FEFE0120012100F0FAFE40F2002065
:10221000C0F230000121FFF759FF41F20000C1F286
:10222000010004AD049020462946FFF7EFFE04208C
:102230008DF813004FF4005720462946ADF8107072
:10224000FFF7E4FE01200D21FFF7C8FE4FF4805098
:10225000ADF80C0002A802978DF80E60FFF7C8FDDC
:1022600040F22820C0F20210019001A800F050FBBB
:1022700005B0F0BD10B548F2B014C4F2212401201D
:102280002060142001F02AFD0020206010BD000015
:10229000FEE700002DE9F04F81B041F60005C4F2E1
:1022A0000105044641F2030000264FF4005AA5F54B
:1022B0000069E8464FF0080BADF8020006E000BFE9
:1022C000FFF742FF0136102E00F0A18024FA06F03D
:1022D000C007F7D0F0B20928F4D8DFE800F0051500
:1022E00025354555657989054846ADF800A0FFF7C5
:1022F0005DFE012100F084FE48464146FFF786FE60
:1023000048464FF40051DBE72020ADF80000284696
:10231000FFF74CFE012100F073FE28464146FFF70F
:1023200075FE28462021CBE70120ADF800002846A5
:10233000FFF73CFE012100F063FE28464146FFF70F
:1023400065FE28460121BBE70420ADF800002846C1
:10235000FFF72CFE012100F053FE28464146FFF70F
:1023600055FE28460421ABE71020ADF800002846B2
:10237000FFF71CFE012100F043FE28464146FFF70F
:1023800045FE284610219BE74020ADF80000284676
:10239000FFF70CFE012100F033FE28464146FFF70F
:1023A00035FE284640218BE74FF40070A5F54067C5
:1023B000ADF800003846FFF7F9FD012100F020FEDE
:1023C00038464146FFF722FE38464FF4007177E762
:1023D0000220ADF800002846FFF7E8FD012100F0DB
:1023E0000FFE28464146FFF711FE2846022167E707
:1023F0002846ADF800B0FFF7D9FD012100F000FE3E
:1024000028464146FFF702FE2846082158E701B05A
:10241000BDE8F08F70B582B014460D4606460DF14A
:10242000020368203B21062200F05CF908B102B0EB
:1024300070BDBDF80210BDF8042009BA090C318046
:1024400011BABDF80620090C298011BA090C2180A7
:1024500002B070BD70B582B014460D4606460DF14F
:10246000020368204321062200F03CF908B102B0C3
:1024700070BDBDF80210BDF8042009BA090C318006
:1024800011BABDF80620090C298011BA090C218067
:1024900002B070BDB0B582B040F60004C4F20104D1
:1024A0002046FFF783FD012100F0AAFD2046FFF73B
:1024B0007DFD012100F0A4FD40F60000C1F2030003
:1024C00001AD019020462946FFF7A0FD4FF4805052
:1024D000ADF8040020462946FFF798FD20464FF44A
:1024E0000061FFF731FE20464FF48051FFF72CFECC
:1024F00002B0B0BD2DE9F04740F60409C4F201096D
:10250000D9F80010804621F47020C9F80000D9F8ED
:10251000000040F2AC15C4F2212540F400204FF039
:10252000000A012700260024C9F800000220C5F88F
:1025300000A001F0D3FB2F6055F87C0C002818BFD9
:10254000012040EA4606022001F0C8FB072C04F1F6
:102550000104EBD300242C60D9F80000B8FA88F10C
:1025600020F47020C9F80000D9F80000490940F4AF
:102570004030C9F800000220696001F0AFFB012083
:102580002860022001F0AAFBF0B22C60BDE8F087C1
:102590002DE9F04140F60401C4F201010A68044645
:1025A00022F470200860086840F2AC15C4F22125BE
:1025B00040F440304FF00008012700260860C5F8BD
:1025C000008000BFE0B2C0096860022064002F6094
:1025D00001F084FB0220C5F8008001F07FFB072E8C
:1025E00006F10106EED3BDE8F0810000B0B540F67B
:1025F0000400C4F20100016840F2AC1421F470211F
:1026000001600168C4F2212441F4403101600120DD
:1026100060602060022001F061FB002502206560FF
:1026200001F05CFB2560B0BD10B540F60400C4F2BB
:102630000100016840F2AC1421F4702101600168CE
:10264000C4F2212441F44031016000202060606028
:10265000022001F043FB0121216002206160BDE8FE
:10266000104001F03BBB000070B540F60404C4F21A
:102670000104206840F2AC1520F47020206020682E
:10268000C4F2212540F400202060012602206E6063
:1026900001F024FB02202E6001F020FB002000BF8F
:1026A00055F87C1CD1B1B0F5BB7F00F10100F7D922
:1026B000206820F470202060206840F440302060C2
:1026C000002028606860022001F008FB012402203D
:1026D0002C606C6001F002FB204670BD0024204697
:1026E0002C6070BDF0B581B01D4614460E460746FD
:1026F000FFF77CFF7F00F8B2FFF74AFFFFF7B4FF58
:1027000028B10124FFF790FFE0B201B0F0BD3046E0
:10271000FFF73EFFFFF7A8FFFFF768FF47F0010054
:10272000C0B2FFF735FFFFF79FFF05E00020FFF77E
:10273000E1FE05F8010B013CE0B20128F6D00028CB
:10274000E0D00120F3E70000F0B581B01C4615464B
:102750000E460746FFF74AFF7800C0B2FFF718FFA2
:10276000FFF782FF28B10124FFF75EFF204601B08A
:10277000F0BD3046FFF70CFFFFF776FF65B100BFF5
:102780002078FFF705FFFFF76FFF38B9013D04F12F
:102790000104F5D10024E7E70024E5E70124E3E79D
:1027A000FEE70000F0B589B040F60004C4F2010471
:1027B00004F580663046FFF7F9FB0121012700F0A0
:1027C0001FFC3046FFF7F2FB012100F019FC03204B
:1027D000C1F2030008AD089030462946FFF716FC09
:1027E0004FF44060ADF8200030462946FFF70EFC5C
:1027F0000120012100F0F8FB2046FFF7D7FB012163
:1028000000F0FEFB2046FFF7D1FB012100F0F8FBB2
:102810000220C1F60300089020462946FFF7F6FB88
:1028200020462946ADF82070FFF7F0FB4FF08040BE
:1028300000F022FF41F61E40069009200590002579
:1028400005A94FF080408DF81C5000F09FFF4FF01D
:102850008040012100F072FD4FF0804001210122F3
:1028600000F002FF4FF4A06000F082F840F21C304C
:10287000C0F20310049004A800F04AF86C46204609
:1028800000F078FF6020C0F2010000904FF080401F
:102890002146CDF8065000F0F5FE4FF0804021466D
:1028A00000F02EFF4FF08040012100F04FFD09B0F5
:1028B000F0BD000048F2A8110028C4F2212104D480
:1028C00000220A6001224A6004E001220A6000221C
:1028D00040424A6081B24FF0804000F051BF00009A
:1028E00048F280110028C4F2212104D400224A6059
:1028F00001220A6004E001224A60002240420A608C
:1029000081B24FF0804000F03DBF000070470000F2
:1029100010B5C17800294EF20011CEF200011AD094
:102920004EF60C52CEF200021268072323EA12225E
:102930000F23C2F1040C23FA02F24378847890F852
:1029400000E003FA0CF322401A43120101EB0E03DC
:1029500083F8002300E080310078012300F01F029B
:1029600003FA02F2C0F3421041F8202010BD00002B
:1029700040F080604EF60C5140F0FD70CEF2000148
:1029800008607047B0B582B040F60044C4F201045C
:102990002046FFF70BFB05462046FFF707FB2843C1
:1029A000012100F02DFB48F20000C1F2034001AD0F
:1029B000019020462946FFF729FB4FF48040ADF8EF
:1029C000040020462946FFF721FB20464FF4004132
:1029D0000122FFF7BBFB20464FF480410122FFF7A5
:1029E000B5FBAE2000F03AF9D52000F037F9802091
:1029F00000F034F9A82000F031F93F2000F02EF962
:102A0000D32000F02BF90020002400F027F940200B
:102A100000F024F9A12000F021F9C82000F01EF9EF
:102A2000DA2000F01BF9122000F018F9812000F0E4
:102A300015F9CF2000F012F9D92000F00FF9F1209C
:102A400000F00CF9DB2000F009F9302000F006F965
:102A5000A42000F003F9A62000F000F98D2000F07A
:102A6000FDF8142000F0FAF8AF2000F0F7F800BFEE
:102A700044F0B000C0B200F0F1F8102000F0EEF821
:102A80000020002500F0EAF8002000F08BF9681C17
:102A900045B2B5F1FF3FF7DCE0B201340728E7D3D8
:102AA00002B0B0BD2DE9F04381B016467E224FEA58
:102AB000400802EB40006FF0070240F0B00002EB6C
:102AC000C104C0B2E5B200F0C9F8280900F110094C
:102AD000484600F0C3F804F00805284600F0BEF8A8
:102AE00048F2A620C0F6000000EB0616A6F2012769
:102AF000082400BF17F8010F00F054F9013CF9D188
:102B0000A8F1010040F0B000C0B200F0A7F84846BC
:102B100000F0A4F8284600F0A1F8A6F2F914082560
:102B200014F8010F00F03EF9013DF9D101B0BDE804
:102B3000F08300002DE9F047002B08BFBDE8F087C7
:102B40004CF6CD4A1C469046894607465D42002613
:102B5000CCF6CC4A18E000BF0120B8FBF0F0A0FB97
:102B60000A12D20802EB8202A0EB420006EB090136
:102B700040F03000C2B2C9B23846FFF793FF0136C9
:102B8000A64205F101050DD0F0430019E4D0012063
:102B9000294600BF00EB800001314A1C4FEA40008B
:102BA000F8D1DAE7BDE8F0872DE9F0471C469146F9
:102BB0008846002A074603D42B22FFF773FF04E060
:102BC0002D22FFF76FFFC9F10009002C08BFBDE8F7
:102BD000F0874CF6CD4A66420025CCF6CC4A17E089
:102BE0000120B9FBF0F00135A0FB0A12D20802EB7C
:102BF0008202A0EB420005EB080140F03000C2B2B7
:102C0000C9B23846FFF74EFFA54206F101060DD0C6
:102C1000E8430019E4D00120314600BF00EB8000FA
:102C200001314A1C4FEA4000F8D1DAE7BDE8F087ED
:102C3000F0B581B0144612786AB10D4606460027F9
:102C40007819C1B2D2B23046FFF72CFF0137F8B283
:102C5000225C002AF4D101B0F0BD0000F0B581B0D3
:102C600040F60044C4F20104054620464FF480417A
:102C70000122FFF76BFA20464FF400410122FFF7D3
:102C800065FA20464FF4804100220026FFF75EFAE5
:102C900020464FF400410022FFF758FA802700BF7A
:102CA00027FA06F000F0780220464FF48041FFF743
:102CB0004DFA20464FF400410122FFF747FA204623
:102CC0004FF400410022FFF741FA0136082EE7D108
:102CD00020464FF400410122FFF738FA20464FF416
:102CE00000410022FFF732FA082600BF20464FF4C9
:102CF00080410022FFF72AFA20464FF400410122CA
:102D0000FFF724FA20464FF400410022FFF71EFA95
:102D1000013EEBD120464FF400410122FFF716FAA5
:102D200020464FF4004100220026FFF70FFA8027CB
:102D300027FA06F000EA050220464FF48041FFF72B
:102D400005FA20464FF400410122FFF7FFF9204623
:102D50004FF400410022FFF7F9F90136082EE7D1C0
:102D600020464FF400410122FFF7F0F920464FF4CE
:102D700000410022FFF7EAF920464FF4804100228B
:102D8000FFF7E4F920464FF400410122FFF7DEF996
:102D900020464FF48041012201B0BDE8F040FFF72A
:102DA000D5B90000F0B581B040F60044C4F201048A
:102DB000054620464FF480410122FFF7C7F920461F
:102DC0004FF400410122FFF7C1F920464FF4804142
:102DD00000220026FFF7BAF920464FF400410022F6
:102DE000FFF7B4F9802700BF27FA06F000F0780259
:102DF00020464FF48041FFF7A9F920464FF40041E7
:102E00000122FFF7A3F920464FF400410022FFF70B
:102E10009DF90136082EE7D120464FF400410122EA
:102E2000FFF794F920464FF4004100220026FFF7F7
:102E30008DF9802727FA06F000F0400220464FF473
:102E40008041FFF783F920464FF400410122FFF74C
:102E50007DF920464FF400410022FFF777F9013653
:102E6000082EE7D120464FF400410122FFF76EF90A
:102E700020464FF4004100220026FFF767F9802723
:102E800027FA06F000EA050220464FF48041FFF7DA
:102E90005DF920464FF400410122FFF757F9204623
:102EA0004FF400410022FFF751F90136082EE7D117
:102EB00020464FF400410122FFF748F920464FF425
:102EC00000410022FFF742F920464FF480410022E2
:102ED000FFF73CF920464FF400410122FFF736F995
:102EE00020464FF48041012201B0BDE8F040FFF7D9
:102EF0002DB90000032841D0022802D0012818BFB4
:102F0000704740F258004EF20001C2F20000C4F2D5
:102F100070010022C0E9002140F2500048F2000197
:102F2000C2F20000C4F25B01C0E9002140F2582067
:102F3000C2F20000C0E9002240F2300048F2000175
:102F4000C2F20000C4F25601C0E9002140F228009C
:102F50004CF6CC414CF6CD43C2F20000C3F6DC7116
:102F6000CCF6CC43C0E9003140F238000021C2F277
:102F70000000C4F24401C0E90021704740F258004B
:102F80004CF20001C2F20000C4F272010022C0E95A
:102F9000002140F250004CF20001C2F20000C4F2E5
:102FA0006201C0E9002140F25820C2F20000C0E9ED
:102FB000002240F2300048F20001C2F20000C4F2E8
:102FC0005601C0E9002140F228004CF6CC414CF6F5
:102FD000CD42C2F20000C3F6DC71CCF6CC42C0E9AF
:102FE0000021704770470000002941F21C01C4F223
:102FF00002010A680CBF22EA000010430860704713
:10300000002941F21801C4F202010A680CBF22EA49
:10301000000010430860704710B541F20404C4F288
:103020000204226802F00C02082A41F20022C0F2D7
:103030007A021CD12368D4F800C0C3F3834E5FEA40
:10304000CC330EF1020C06D440F60012C0F23D0261
:103050000CFB02F20BE023689B0302D40CFB02F290
:1030600005E040F60012C0F23D020CFB02F20260E5
:10307000226848F29623C2F30312C0F600039A5C5A
:103080000168D14041602268C2F302229A5C21FAB1
:1030900002F282602268C2F3C2229A5C48F2922352
:1030A000D140C1602268C0F60003C2F381329A5C4D
:1030B000B1FBF2F1016110BD704700004EF210014A
:1030C000CEF200010A68042822F0040208BF04328C
:1030D0000A6070477047000082B041F20400C4F2F9
:1030E000020050F8041C002241F0010140F8041CC9
:1030F0000168CFF6FF021140016050F8041C4FF642
:10310000FF72CFF6F662114040F8041C50F8041C20
:1031100021F4802140F8041C016821F4FE010160C3
:103120004FF41F01416000210191009150F8041CEF
:1031300041F4803140F8041C4FF6FF7150F8042C24
:1031400002F400320092019A01320192009A12B9FF
:10315000019A8A42F2D150F8041C890354BF00211D
:10316000012100910099012937D142F20001C4F2F6
:1031700002010A6842F010020A600A6822F00302A3
:103180000A600A6842F002020A6001680160016890
:103190000160016841F480610160016821F47C11E3
:1031A0000160016841F4E811016050F8041C41F02D
:1031B000807140F8041C00BF50F8041C8901FBD545
:1031C000016821F003010160016841F00201016022
:1031D000016801F00C010829FAD14EF60850CEF230
:1031E00000004FF00061016002B0704710B5044666
:1031F0006FF00400FFF762FF40F24521E008C2F2E1
:103200000001087010BD000040F20020C2F2000072
:1032100040F280220188C2F200021368013101806D
:1032200001334FF080400121136000F087B80000A7
:1032300010B542F60044C4F201042046012100F01A
:10324000ABF8012818BF10BD20460121BDE8104091
:1032500000F074B8B0B540F20825C2F20005B5F927
:10326000000040F600040028C4F200045ED42046AA
:10327000012100F097F8B0B12888410413D5014628
:103280006FF39F3143F6FF7291420AD140F4004040
:10329000288040F20A20C2F200004FF6FF71018040
:1032A00001E0013028802046022100F07BF8E8B3DD
:1032B0002888410419D440F20A20C2F200000021FB
:1032C00001804FF4804028802046002100F03EF825
:1032D0002046002100F058FA2046022100F00AFAA8
:1032E0002046012100F032F820E040F40040288020
:1032F000204600F04DF82A8840F20A21C2F200016F
:103300006FF39F320880C2EB02410A1802200121AC
:103310000823FFF70FFC08A202200921FFF788FC11
:10332000002028802046002100F0E4F920460321F7
:10333000BDE8B04000F006B875730000C9430182D3
:1033400070470000C94301827047000002880029CD
:1033500018BF012122F001021144018070470000D2
:10336000B0B5B0F808C0B0F818E0058C2CF0070430
:1033700021434FF6FC4404EA0E0425F0220542EAFC
:10338000031204F201142A43018104830284B0BDB4
:10339000808E7047808C7047008A084018BF0120DB
:1033A00070470000028A80890A4000EA010018BFC5
:1033B0000122002818BF012010407047F0B50A888C
:1033C000082A29D0042A52D0002A7BD14B88B1F890
:1033D00004C0B1F808E0028C40F6FF3622F001028A
:1033E0000284024632F8184F058CC4F20006B0423F
:1033F0004FF6FC7600F38F80B0F1804F00F09E8096
:1034000040F20047C4F20007B84200F0978040F64F
:103410000007C4F200078EE04B88B1F804C0B1F891
:1034200008E0028C40F6FF3722F4807202840246E4
:1034300032F81C4F058C6FF44056C4F20007B842B6
:1034400006F5145600F38B80B0F1804F00F09980A0
:1034500040F20047C4F20007B84200F0928040F604
:103460000007C4F20007B84200F08B808EE04B8862
:10347000B1F804C0B1F808E0028C40F6FF3722F042
:1034800010020284024632F8184F058C6FF00306D2
:10349000C4F20007B842A6F1AD0600F38880B0F18F
:1034A000804F00F0968040F20047C4F20007B84217
:1034B00000F08F8040F60007C4F20007B84200F029
:1034C00088808AE04B88B1F804C0B1F808E0028C2B
:1034D00040F6FF3622F480520284024632F81C4F36
:1034E000058CC4F20006B04246F6FF5600F3898010
:1034F000B0F1804F00F0978040F20047C4F200071F
:10350000B84200F0908040F60007C4F20007B842CD
:1035100000F089808AE040F60047C4F20007B84214
:103520000CD042F60047C4F20107B84206D043F27D
:103530000047C4F20107B84218BF083E35402B438C
:1035400024F0F3044CEA0E1743F0010327430783EA
:103550000384C988038B23F00C0303837AE040F6CD
:103560000047C4F20007B8420BD043F20047C4F250
:103570000107B84205D042F60047C4F20107B8423D
:1035800004D14CF6FF761B0206F5345635402B432A
:1035900024F0F3044CEA0E1743F480732743878327
:1035A0000384C988838B23F00C03838352E040F6A5
:1035B0000047C4F20007B8420BD043F20047C4F200
:1035C0000107B84205D042F60047C4F20107B842ED
:1035D00003D14FF6FC761B012D3E35402B4340F6C0
:1035E000FF452C4044EA0E3743F0100347EA0C270E
:1035F00007830384C988038B090223F44063038390
:1036000028E040F60047C4F20007B8420BD043F26E
:103610000047C4F20107B84205D042F60047C4F2A1
:103620000107B84202D14CF6FF761B0335402B430D
:1036300040F6FF454FEA0E372C4047EA0C2743F48B
:103640008053274387830384C988838B090223F42B
:1036500040638383108808431080F0BD002101225D
:103660000160426001817047002A82890CBF22EA12
:103670000101114381817047018921F00701018116
:1036800070470000B0B5028C22F001020284038C66
:103690008288B0F818C00C8923F002032343A0F1FC
:1036A00080444D88A4F59634B1F800E04FEAB42484
:1036B000072C43EA050313D8012505FA04F414F096
:1036C000E50F0DD04C8923F00C0324F004048D8801
:1036D00023438C892B4322F44072CD8922432A4311
:1036E0002CF0730545EA0E0582800583C988818622
:1036F0000384B0BD028C22F00202114301847047A2
:10370000B0B5028C22F010020284038C8288B0F8DB
:1037100018E00C894D88B1F800C02C4343F20045F5
:1037200023F02003C4F20105A84243EA041305D0A4
:1037300042F60044C4F20104A04211D14C896FF05A
:10374000400523F0C00305EA04148D88234343EAAF
:1037500005138C89CD8922F440622C4342EA84020D
:103760002EF4E64545EA0C2582800583C988018749
:103770000384B0BD0021C160816041600160704779
:1037800081867047018770478184704740F6FF3318
:10379000B0F800C0C4F2000398420FDCB0F1804FD3
:1037A0001ED040F20043C4F20003984218D040F605
:1037B0000003C4F20003984212D016E040F6004322
:1037C000C4F2000398420BD043F20043C4F2010359
:1037D000984205D042F60043C4F20103984204D156
:1037E0004B882CF0700243EA020C41F2004240F494
:1037F0008063C4F20002934204D0CA882CF4407360
:1038000042EA030CA0F800C08A888285A0F18042B9
:10381000A2F596320B884FEAB222072A038507D811
:10382000012303FA02F212F0E50F1CBF097A0186A8
:10383000012181827047000010B543F60004C4F2F4
:103840000104204640F2255100F076F8002808BF18
:1038500010BD204600F0FCF840F29401C2F20001D5
:10386000086010BD70B586B040F60004C4F20104D3
:1038700005462046FEF79AFB0121FFF7C1FB2046D3
:10388000FEF794FB0121FFF7BBFB4FF480400121C1
:10389000FFF7B6FB40F20020C1F6030005AE05902D
:1038A00020463146FEF7B2FB4FF48060ADF81400BD
:1038B00004208DF8170020463146FEF7A7FB40F2A2
:1038C00000610020C0F20C0104F540540290039105
:1038D000ADF8100001A92046019500F05DF82046E2
:1038E000012100F019F82046402100F011F820468F
:1038F00040F22551012200F037F840F22520C0F2B5
:10390000021000906846FFF703F806B070BD000093
:10391000C9430180704700008289002918BF012136
:1039200022F4005242EA4131818170470088084008
:1039300018BF012070470000C1F34212022A06D0CE
:10394000012A14BF00F1140200F10C0201E000F1A1
:1039500010021288008801F01F03090ADA40C840EB
:10396000104000F001007047C1F3421301F01F0C3A
:103970001421022B08BF1021012B4FF0010308BFB7
:103980000C21002A03FA0CF243580CBF23EA02026E
:103990001A4342507047000070B586B00446008A52
:1039A0000D46C98820F4405008432082A0894EF675
:1039B000F3110840A9882A896B89084310431843EA
:1039C000A081A08AA98920F44070084301AEA0829A
:1039D0003046FFF721FB43F6000106F10800C4F270
:1039E00001018C4208BF06F10C0000681922B4F9ED
:1039F0000C1050432A680123B1F1FF3FC8BF0223D6
:103A000002FA03F1B0FBF1F048F21F51C5F2EB11DD
:103A1000A0FB01235A096FF0630302FB0300B4F912
:103A20000C300326B3F1FF3FC8BF042600FA06F0AE
:103A300000F13200A0FB01014FF00700C8BF0F20CA
:103A400000EA511040EA0210208106B070BD00006B
:103A500080886FF35F2070476FF35F21818070472C
:103A6000FEE700002DE9F04381B004F085FA002163
:103A7000C4F23431044603F0C5FF30B90021CCF262
:103A80003431204603F0C5FF98B92046002103F0E9
:103A9000C7FF38B90021CCF2B431204603F042FF11
:103AA000044606E00020C4F2B430214604F064FA73
:103AB000044640F2602040F23801C2F20000C2F237
:103AC0000001D1E900980460204603F0FFFE04469F
:103AD00040F21020C2F2000005C80F4611462246EF
:103AE0003B4603F015FC06460D4648464146224635
:103AF0003B4603F00DFC32462B4603F08DF903F0F4
:103B000059F940F2F415C2F2000529680446084646
:103B1000214604F031FA40F2F816C2F2000631688C
:103B200028600846214603F0FDFE306001B0BDE884
:103B3000F08300002DE9F041054640F24E20C2F22C
:103B40000000B0F9000040F26C280C4682F00047FB
:103B5000C2F2000804F0B0F80021C4F2C82103F05A
:103B600079FF04F06DF80646284603F0AFFE0246E2
:103B700040F22000C2F2000009C80D4619462B464B
:103B800003F0B6FD03F016F9D8F800100246084617
:103B90003146FDF781FAFEF75FF90546FEF76EF94B
:103BA000281A00EBD070401004F086F8214604F08B
:103BB000E3F904F045F802F0B3FC40F2902040F243
:103BC0004021C2F20000C2F2000109680068FFF75C
:103BD00049FF40F28C20C2F200000760BDE8F0818E
:103BE0002DE9F041064640F24E20C2F20000B0F945
:103BF000000040F26C2814460D46C2F2000804F0A2
:103C00005BF80021C4F2C82103F024FF04F018F887
:103C10000746304603F05AFE024640F22000C2F248
:103C2000000009C80E461946334603F0F5F803F0C4
:103C3000C1F8D8F80010024608463946FDF72CFABC
:103C4000FEF70AF90646FEF719F9301A00EBD070B4
:103C5000401004F031F8294603F064FE03F0F0FF51
:103C600002F05EFC40F2902040F24021C2F20000DF
:103C7000C2F2000109680068FFF7F4FE40F28C20F0
:103C8000C2F200000460BDE8F0810000002808BF17
:103C9000704740F24522C2F2000212784EF2100143
:103CA0004FF47A73CEF2000102FB03FC002300BF45
:103CB000C1F804C08B600A6842F001020A6000BFCC
:103CC0000A6802F00112012AFAD00A68013822F0CB
:103CD00001020A608B60EBD170470000002808BF2A
:103CE000704740F24521C2F200010A784EF21001FD
:103CF000CEF200015043486000208860086840F020
:103D000001000860086800F001100128FAD0086876
:103D100020F0010008600020886070472DE9F04F16
:103D200081B00E4640F2180140F2000AC2F20001D2
:103D3000CCF2702AD1E90098514603F0F3FD03F06C
:103D4000C5FD834640F21000C2F20000D0E90057E2
:103D50000C463046514603F0E5FD03F0B7FD024640
:103D60000B462846394603F0D3FA05460E46484628
:103D700041465A46234603F0CBFA2A46334603F01F
:103D80004BF803F017F80025C4F29625294604469F
:103D900003F038FE58B90021CCF29621204603F0FA
:103DA00038FE2546002804BF0025CCF2962528467B
:103DB00001B0BDE8F08F00002DE9F04186B0044667
:103DC0004CF60220C0F6E3100DF10205CDF802001A
:103DD000682004212A4602F00FFBA3206FF03F0168
:103DE0008DF8020014F0400608BF6FF05C016FF020
:103DF00037026FF03D0308BF6FF05C0208BF6FF041
:103E00005C038DF803106FF03B018DF804208DF8F2
:103E1000053014F4C07708BF6FF05C016FF0330217
:103E20006FF0390308BF6FF05C0208BF6FF05C03EE
:103E30008DF806104AF2A3318DF80720ADF809106D
:103E40008DF80B0040F6A7200A212A468DF808308D
:103E500002F0D2FA202014F0030808BF6FF0270008
:103E60008DF8020040F6B62001212A4602F0C4FA7D
:103E7000A0060CD4C7208DF8140048F6B000CCF290
:103E8000C35004904AF6B820CAF6AA200BE05D2081
:103E90008DF8140049F6B400C3F20D5004904AF6B0
:103EA000B820C8F6B350039003AA4FF497600921D5
:103EB00002F0A2FA2FB36FF04D016FF0740214F408
:103EC000807008BF6FF04F0108BF6FF07F026FF086
:103ED00049036FF0640508BF6FF04B03002808BF6B
:103EE0006FF06F058DF802108DF803200DF10202BE
:103EF00040F6A22004218DF804308DF8055002F020
:103F00007BFAE00708D1D8208DF802000DF10202FB
:103F10004FF40B60012150E0F8208DF802000DF104
:103F200002024FF40B60012102F066FA0720FA2129
:103F300000F058FA3F208DF80C0003AA4FF4A4704B
:103F4000012102F059FA00208DF80C0003AA40F27A
:103F50004F10012102F050FA4FF4A050ADF80C00C0
:103F600003AA4FF4EF70022102F046FA4FF4C84062
:103F7000ADF80C0003AA4FF4ED70022102F03CFAF8
:103F800048F60060C9F2F900039003AA4FF4AE703E
:103F9000042102F031FA4FF40060ADF80C0003AADE
:103FA0004FF4AD70022102F027FA4FF40070ADF823
:103FB0000C0003AA4FF4AC70022102F01DFAA00716
:103FC0006FF0260058BF6FF027008DF802000DF14A
:103FD000020240F23D70012102F00EFA600752BF6A
:103FE0004FF08B304CF2C020CCF2C460039003AA97
:103FF00040F69820042102F0FFF901F09DFCE00654
:1040000052BF4FF0A33042F62000C3F630000390B9
:1040100003AA40F69E20042102F0EEF901F08CFC88
:1040200040F2382144F00800C2F20001088001F09B
:1040300083FC002E18BF0626002F40F23E2018BF3A
:104040000636C2F2000014F0140F067002D0017898
:1040500010310170B8F1000F02D001780431017005
:10406000002006B0BDE8F08148F6A601C0F60001C8
:1040700040F6F6304FF48062C82301F05FBA0000CA
:104080002DE9F04F89B01446DDE9129288460021EF
:10409000A9F8001040F23E21C2F2000109780DF1AA
:1040A000040A8346084651461E4601F0EFFB20B144
:1040B0004FF0FF3009B0BDE8F08F40F23827C2F270
:1040C0000007388810F0140F4CD09DF805100096AA
:1040D0009DF80400BDF8066009049DF8093041EA26
:1040E000006031BA40EA11419DF8082021601904AE
:1040F000BDF80A3041EA02611ABA41EA124262602E
:104100009DF80D209DF80C30BDF80E60120442EAB7
:10411000036233BA42EA13430914A3609DF81130D5
:10412000001449439DF8106000FB00101B0411149B
:1041300043EA066301FB0100BDF81250191401FBAC
:1041400001002EBA6FF0885143EA164546184FF623
:10415000FE70CFF6FF508642E56005D801F0ECFB1B
:10416000002005E000200BE0B9F8000040F480706A
:104170006FF000718E42A9F8000099D3009E1020C4
:1041800039884A062BD540F001031AF800201AF8A6
:104190000330374643EA022240F0020340F00306B0
:1041A0001AF803301AF80660A8F8002046EA03223D
:1041B00040F0040340F005061AF803301AF80660D0
:1041C000A8F8022046EA0322A8F80420B9F8002043
:1041D0003E4640F0060042F00802A9F8002011F423
:1041E000C07F18D03AF800200AEB000312BA5F88AB
:1041F000120CABF800203ABA9B88120CABF80220E4
:104200001ABA120CABF80420B9F80020063042F0BC
:104210007002A9F8002089071CD00AEB0005687815
:10422000EC78C0070BD040F22C20C2F200000268EC
:104230002AB104F00700411CC4F3C200904768781B
:10424000000707D540F23020C2F20000016809B132
:10425000A0098847304600F0ADFE002009B0BDE857
:10426000F08F000010B586B004464AF6BB70CDF65C
:10427000DF7005904FF2AA10CDF6DF7004904FF278
:10428000FE20CCF2AB40C82C039016D8C820B0FB5F
:10429000F4F0002101388DF804108DF8050001AA12
:1042A00040F21620022102F0A7F830B903AA40F626
:1042B000C1200C2102F0A0F818B14FF0FF3006B079
:1042C00010BD40F23C20C2F200000480002006B085
:1042D00010BD0000B0B582B0054648F28F21C0F68F
:1042E0000001C5F3C10300F00300CC5C0A5C8DF84B
:1042F000054048F28C248DF80420C5F38112C0F6E5
:104300000004895C205C8DF806108DF80000E05CEC
:10431000A15C8DF801008DF8021001AA40F2264040
:10432000032102F069F8A0BB6A4640F22A4003214B
:1043300002F062F868BB76208DF8060045F2366020
:10434000ADF8040044F22660ADF80000662069076D
:104350008DF8020021D4A8062DD4E8050BD59DF8D0
:1043600006009DF8021040F001008DF8060041F0B3
:1043700001008DF8020001AA4FF48860032102F0C9
:104380003BF830B96A4640F23140032102F034F87C
:1043900000B34FF0FF3002B0B0BD9DF804009DF8AF
:1043A000001040F001008DF8040041F001008DF88C
:1043B0000000A806D1D59DF805009DF8011040F039
:1043C00001008DF8050041F001008DF80100E805BD
:1043D000C5D4D0E740F23420C2F2000005800020AE
:1043E00002B0B0BDF0B583B00446B1F5C86F4FF070
:1043F000FF3053D814F0070250D0084603F074FC85
:104400000021C4F2483103F025FB05460DF10700F9
:1044100000F08CFF9DF8070002384FEA7002072A6F
:104420004FF0FF303AD80026C4F240664FF08D417D
:10443000DFE802F01504340A343434100026C4F2E4
:10444000C0564FF08C410AE00026C4F240564FF0AF
:104450008B4104E00026C4F2C0464FF08A41284652
:1044600003F0BEFC07462846314603F0B9FC03F0D2
:10447000E7FB0546384603F0E3FB010A8DF8090027
:10448000280A8DF80A00E0078DF808108DF80B5007
:1044900006D1A00714D4600722D4002003B0F0BDD9
:1044A00002AD4FF4EA7002212A4601F0A5FF38BBA5
:1044B000AA1C4FF49270022101F09EFF00BBE8E7B6
:1044C00002AD4FF4EC7002212A4601F095FFB8B915
:1044D000AA1C4FF49470022101F08EFF80B9DAE734
:1044E00002AC4FF4EE700221224601F085FF38B98C
:1044F000A21C4FF49670022101F07EFF0028CCD060
:104500004FF0FF3003B0F0BDB0B543F60005C4F284
:1045100001050446C1B22846FFF79EFA28468021CD
:10452000FFF704FA0028F9D02046B0BD2DE9F04786
:1045300084B040F2680705460120C2F200070C462D
:10454000ADF80400D7E9001016460078897C01AB6D
:104550000222FEF7F9F810B14FF0FF378DE1C820C5
:10456000FFF794FB00208DF80400D7E9001001ABA1
:104570000078C97B0122FEF7E7F810B14FF0FF3752
:104580007BE1D7E9001001AB007849790122FEF701
:10459000DBF810B14FF0FF376FE1D7E9001001AB46
:1045A0000078897C0122FEF7CFF810B14FF0FF3779
:1045B00063E1D7E9001001AB0078C97D0122FEF765
:1045C000C3F810B14FF0FF3757E1D7E9001001AB46
:1045D000007809790122FEF7B7F810B14FF0FF37E4
:1045E0004BE10C208DF80400D7E9001001AB0078F6
:1045F00009790122FEF7A8F810B14FF0FF373CE12E
:104600000F20FFF743FBB86A3968407A7A688DF863
:1046100004001078897801AB0122FEF795F810B1FB
:104620004FF0FF3729E1B86A3968007A7A688DF867
:1046300004001078497801AB0122FEF785F810B12B
:104640004FF0FF3719E1B86AD7E90012807A002EDF
:1046500018BF40F0E0008DF804001078897901ABB4
:104660000122FEF771F810B14FF0FF3705E126B1D6
:10467000B86AC07A60F01F0000E018208DF80400CE
:10468000D7E9001001AB0078C9790122FEF75CF888
:1046900010B14FF0FF37F0E016B1C820FFF7F6FA7F
:1046A00040208DF80400D7E9001001AB00780979AB
:1046B0000122FEF749F810B14FF0FF37DDE0782016
:1046C0008DF80400D7E9001001AB00784979012288
:1046D000FEF73AF810B14FF0FF37CEE03220FFF787
:1046E000D5FA00208DF80400D7E9001001AB00785E
:1046F00049790122FEF728F810B14FF0FF37BCE0EE
:10470000D7E9001001AB0078897A0222FDF7EAFFB1
:1047100010B14FF0FF37B0E0BDF804004AF6AB210E
:1047200000BA000C4843C0F3C7480021B8F1000F9D
:10473000C5E90011A960C4E90011A16042D0C00C14
:1047400000260DF104095FFA80FAD7E900100C2267
:104750000078C97A4B46FDF7C5FF002840F08B80F2
:10476000BDF80400BDF80610BDF8082090FA80FCE2
:10477000D4E9003009BA92FA82FEA26803EB2C4316
:1047800000EB214002EB2E41C4E90030BDF80A00E5
:10479000A160BDF80C1090FA80FCBDF80E20D5E9A0
:1047A000003009BA92FA82FEAA6803EB2C4300EBB0
:1047B00021400136C5E90030F0B202EB2E415045F0
:1047C000A960C2D395E841028322C117090441EAD6
:1047D0001041000400230027FBF706FD424600239A
:1047E000FBF702FD2860F017000440EA1641300490
:1047F00083220023FBF7F8FC42460023FBF7F4FC7E
:1048000068604FEAE970000440EA19414FEA094044
:1048100083220023FBF7E8FC42460023FBF7E4FC7D
:10482000A860D4E90006A568C117490141EAD06132
:10483000400142460023FBF7D7FC2060F0174001FF
:1048400040EAD661700142460023FBF7CDFC606070
:10485000E817400140EAD561680142460023FBF7B2
:10486000C3FC4FF480310028C4BF0021CFF6FF7194
:104870000844A06001E04FF0FF37384604B0BDE8BF
:10488000F087000090F9001000290DDD002190F95B
:104890000320002A0FDD002290F90630002B11DDE5
:1048A000002011430843704713D490F901100029E8
:1048B00016DD0121EBE70ED490F90420002A16DD65
:1048C0000822E9E709D490F90730002B16DD4020D3
:1048D000E7E70421DBE72022DEE74FF48070E0E722
:1048E00013D490F90210002916DD0221CFE70ED46F
:1048F00090F90520002A14DD1022CDE709D490F9A3
:104900000800002812DD8020CBE70521BFE7282220
:10491000C2E74FF4A070C4E74FF0060108BF0721BB
:10492000B5E74FF0300208BF3822B5E74FF4C0704A
:1049300008BF4FF4E070B4E74FF41640FEF792FF63
:10494000FCF782FB0FF2686201200121FEF770F98B
:1049500040F26C2740F2902840F21C2540F24C2691
:1049600040F24E2940F2F81A40F27C2440F2022B29
:10497000C2F20007C2F20008C2F20005C2F200064D
:10498000C2F20009C2F2000AC2F20004C2F2000B35
:1049900017E000BF0020FDF78DFF0020FDF7A0FF0E
:1049A000D8F8000040F24021C2F20001086040F255
:1049B0008C210020C2F200010860FDF74DFAFDF7DE
:1049C0005DFA40F278213846C2F20001424600F01A
:1049D0003FFB90B940F2182040F21A21C2F20000C9
:1049E000C2F200012A46FDF715FD40F25022304682
:1049F0004946C2F20002FDF72DFD386802F066FF5D
:104A000040F22002C2F200020CCA02F071FE02F073
:104A1000D1F90021C4F2201103F0E2F903F010F9FA
:104A2000024601200C210323FEF7BEF840F2940059
:104A3000C2F2000000683828ACD040F28021C2F2F7
:104A4000000109680C29BCD340F27422C2F20002B2
:104A50001168E1B1481E21781060481E207079B9B4
:104A60009BF802005A2801D0102806D1D8F800007F
:104A700040F24021C2F20001086000208BF80200E1
:104A800040F280210020C2F20001086099E7A0F105
:104A90003101032935D8DFE801F00268A1E40220E2
:104AA0004546FEF727FA40F28821C2F20001086865
:104AB000B0F1FF3FDCBF0130086040F26400C2F299
:104AC0000000B0F800A0504602F00FFC00230022C6
:104AD000C3F6E87302F01CFC02F06CF983460AEBA3
:104AE0004A0003F0E9F880464FF4C8700AFB00F072
:104AF00003F0E2F8024658464146FFF771F8A8462F
:104B00005FE040F28822C2F2000211680129C0F27F
:104B10007D8102201446FEF7EDF940F26400C2F2F6
:104B200000000588284602F0E0FB00230022C3F6BF
:104B3000E87302F0EDFB02F03DF9814605EB45001C
:104B400003F0BAF806464FF4C870684303F0B4F8AF
:104B5000024648463146FFF743F820680138206096
:104B600040F2F41BC2F2000BC8E00220FEF7C2F9CB
:104B700040F28821C2F2000108680128A4BF013870
:104B8000086040F26400C2F200000788384602F074
:104B9000ACFB00230022C3F6E87302F0B9FB02F07D
:104BA00009F9054607EB470003F086F806464FF47F
:104BB000C870784303F080F8024628463146FEF775
:104BC000B9FF40F2F41B40F2F81940F26C27C2F230
:104BD000000BC2F20009C2F2000790E040F2882107
:104BE0000020C2F2000108600120FEF783F9B9F944
:104BF000000003F061F80021C4F2C82102F02AFF8E
:104C000003F01EF840F22001C2F20001D1E90021B8
:104C10000546104602F0CEF8396802460846294695
:104C2000FCF73AFAFDF718F90546FDF727F9281AB7
:104C300000EBD070401001F073FC40F2F41BC2F2A4
:104C4000000BDBF800000021CCF27A4102F06AFE92
:104C5000DAF80010CBF8000008460021C4F27A41CF
:104C600041E040F288210020C2F2000108600120EA
:104C7000FEF740F9B9F9000003F01EF80021C4F274
:104C8000C82102F0E7FE02F0DBFF40F22001C2F291
:104C90000001D1E900210546104602F08BF8396881
:104CA000024608462946FCF7F7F9FDF7D5F8054610
:104CB000FDF7E4F8281A00EBD070401001F030FC4A
:104CC00040F2F41BC2F2000BDBF800000021C4F23A
:104CD0007A4102F027FEDAF80010CBF8000008460F
:104CE0000021CCF27A4102F01DFED8F80010CAF87B
:104CF000000040F24020C2F200000160D146FDF702
:104D0000B9FA40F2842AC2F2000ADAF800003D68DB
:104D10000021471C2846C4F2702102F073FE0021D6
:104D200006462846CCF2702102F081FE002818BF0A
:104D30003846002E18BF3846DBF80010CAF80000CD
:104D4000084602F07DFFFDF7B5FDD9F8000002F03E
:104D500077FFFDF7C5FD40F24000C2F20000006899
:104D600002F08AFF0246012001210323FDF7E2FE43
:104D700040F29400C2F200000268022001210823E0
:104D8000FDF712FFFDF768F8024603200121062314
:104D9000FDF70AFFFDF772F84242042001210623C5
:104DA000FDF702FF40F27C24C2F20004207840F2BA
:104DB0001C2540F24C2640F2022B411EC2F2000597
:104DC000C2F20006CA46C2F2000B217078B99BF805
:104DD00002005A2801D0102806D1D8F8000040F26D
:104DE0004021C2F20001086000208BF8020040F26E
:104DF00080210020C2F2000140F24E2940F26C27CF
:104E00000860C2F20009C2F20007DAE5B1F1FF3F23
:104E100046DD3B284FF0010008BF0320FEF76AF88B
:104E200040F2600040F24006C2F20000C2F200060A
:104E300001683068FEF772FF40F29401C2F200018F
:104E40000D68392D53D1044630680021C4F2F02199
:104E500002F0DFFD00284AD1204602F037FD49F676
:104E60009A1249F69913C9F69912C3F6A973054621
:104E70000E4602F04DFA01F09DFF43F233338146B6
:104E8000284631464FF03332C3F6C37302F040FA7E
:104E900001F090FF014648460022FEF7A1FE5FE6C2
:104EA00002201446FEF726F840F26400C2F2000029
:104EB0000588284602F019FA00230022C3F6E87399
:104EC00002F026FA01F076FF814605EB450002F07C
:104ED000F3FE06464FF4C870684302F0EDFE02464A
:104EE00048463146FEF77CFE2068013037E6612DEA
:104EF00012DCA5F1220015281CD8DFE800F00B29F0
:104F00002929292929292929292929292929292911
:104F1000291F0B1D042016E0A72D05DC622D0FD0E4
:104F2000A22D15D101200EE0A82D0BD0E02D0FD120
:104F3000072008E0022D0BD1052004E0032002E049
:104F4000022000E0082040F26401C2F20001088063
:104F5000B9F9000002F0B0FE0021C4F2C82102F04D
:104F600079FD02F06DFE40F22001C2F20001D1E9AC
:104F700000210546104601F01DFF3968024608462B
:104F80002946FCF789F8FCF767FF0546FCF776FF32
:104F9000281A00EBD070401001F0C2FA40F2402015
:104FA000C2F200000168D8F80000FEF75BFDD7E50B
:104FB0004F4B000070470000F0B581B040F268052B
:104FC000C2F2000595F8241019B10024204601B062
:104FD000F0BDA97AF9B100F0FE0739402E7CCC1B58
:104FE000287D18BF4FF0FF34002F297408BF002818
:104FF00014D0687C10BB01208DF80200D5E90010A8
:105000000DF102030078C97B0122FDF79DFBA8B9D1
:105010009DF8020011E04FF0FF34D7E700208DF833
:105020000300D5E900100DF103030078C97B0122CC
:10503000FDF78AFB10B99DF803006874002FC5D0F6
:1050400000F07AFC00281CBF2E744FF0FF34BDE73F
:105050002DE9F04F8FB005460DF12A0014460E469B
:105060000DF1290700900DF132000BA906AA0EAB35
:105070000197FFF705F818B101200FB0BDE8F08FD8
:10508000BDF82A00C00503D402200FB0BDE8F08FA0
:1050900006980594079C0496DDE9086702F00CFE6B
:1050A0004FF0425102F09CFE8046204602F004FE82
:1050B0004FF0425102F094FE8346304602F0FCFD70
:1050C0004FF0425102F08CFE0446384602F0F4FDE7
:1050D0004FF0425102F084FE814658464FF0404165
:1050E00002F07EFE824640464146CDF80C8002F03A
:1050F00019FC2146804602F073FE0646504649469A
:1051000002F06EFE314602F00DFC02F0DFFB01F012
:1051100015FB4AF26663C4F24C034FF0663202F0AC
:10512000F7F801F047FE28602046214602F0FAFB1E
:1051300006464046594602F053FE0546304649466B
:1051400002F04EFE294602F0EDFB02F0BFFB0546E1
:105150000F462046314602F043FE06465046594669
:1051600002F03EFE314602F007FF4FF07E5102F0A2
:10517000D9FB02F0ABFB02460B462846394601F04C
:1051800025FD4AF26668C4F24C084FF06632434689
:1051900002F0BEF801F00EFE0499039F0860384645
:1051A000494602F01DFE05465846214602F018FE0B
:1051B000294602F0B7FB014602F0B4FB02F086FB81
:1051C00005468A465846594602F00AFE06463846C3
:1051D000394602F005FE314602F0A4FB06462046A1
:1051E000214602F0FDFD0146304602F0C5FE0446B0
:1051F0004846494602F0F4FD0146204602F0BCFE56
:1052000002F064FB02460B462846514601F0DEFCE4
:105210004FF06632434602F07BF801F0CBFD059972
:10522000086000200FB0BDE8F08F000070B582B0BC
:10523000FDF730F900F096F810B10A2002B070BD09
:10524000782001F05DF8000602D0012002B070BDA8
:1052500040F26805C2F2000595F8240008B1002468
:1052600022E0A87AF0B1697C00F078002E7CB0F1E1
:10527000780418BF4FF0FF34287479B901208DF8F5
:105280000700D5E900100DF107030078C97B012262
:10529000FDF75AFA10B99DF80700687400F04CFB4E
:1052A00010B12E744FF0FF34200602D0022002B05D
:1052B00070BD642000F0B6FF000602D0032002B0EB
:1052C00070BDFEF7D1FE000602D0042002B070BD12
:1052D00040F24500C2F20000FFF7D4FAFEF7FAFFF1
:1052E000000602D0052002B070BD40F27310FEF738
:1052F00063FD000602D0062002B070BD6420FEF7F8
:10530000B1FF000602D0072002B070BD01F0A6F880
:1053100010B1082002B070BD012000F0DBFEC0B269
:10532000002818BF092002B070BD000040F26801DB
:10533000C2F200014A7A032A84BF4FF0FF3070475F
:1053400040F20243D200C1F2080323FA02F20270D3
:10535000C97C002904BF0020704701784900017012
:105360000020704710B582B040F268048020C2F27D
:1053700000048DF80100D4E900100DF1010300785C
:10538000897C0122FDF7E0F910B14FF0FF341EE0F7
:105390006420FEF77BFC00208DF80100D4E90010AA
:1053A0000DF101030078897C0122FDF7CDF910B1E0
:1053B0004FF0FF340BE0D4E900100DF10103007849
:1053C000897D0622FDF78EF920B14FF0FF3420468B
:1053D00002B010BD9DF806209DF802009DF8041053
:1053E000042303EA820261F3410200F00100111874
:1053F00005D001292AD002290ED1002027E0D4E9C6
:1054000000100DF101030078C9780122FDF76AF957
:1054100040B14FF0FF34DAE736A0FAF71FFF4FF044
:10542000FF34D4E79DF8010000F00F0004280AD0F3
:105430000028E2D149F2C340C0F60000FBF746F86D
:105440004FF0FF34C3E735A0FBF740F80120E074CC
:105450004FF6FF70E081FF202074A0744FF0FF3002
:10546000A0600020C4E90500E0612084C4F82300A6
:1054700084F8270018208DF80700D4E900100122D5
:1054800000788979227384F822200DF10703012224
:10549000FDF75AF910B14FF0FF3498E79DF8070077
:1054A000C0082072022000F063FD10B14FF0FF34FD
:1054B0008DE72A2000F07EFE10B14FF0FF3486E722
:1054C000322000F0AFFE10B14FF0FF347FE7002034
:1054D000FFF772FD10B14FF0FF3478E7002000F0C5
:1054E00083FD10B14FF0FF3471E70020002400F07D
:1054F00007FF6CE7556E737570706F72746564208A
:10550000736F6674776172652070726F647563740F
:10551000207265762025642E0A00000048616C66C2
:105520002073656E7369746976697479207061722D
:105530007420666F756E642E000000002DE9F04F38
:1055400087B0074600294FF0FF3000F0A78040F2F7
:105550006804C2F200040E4694F82510002940F0B9
:105560009D809246002F019300F07F804FF000094C
:105570000DF10A0B1FFA89F0A7EB0008B8F1100F24
:10558000A8BF4FF0100835184FF0FF3006B3A17ACE
:10559000F1B160685FFA89F11FFA88F2438911441A
:1055A000994299FA89F14FEA1141ADF81A1003D9DD
:1055B0004FF0FF3070B166E021680078097E02226A
:1055C0000DF11A03FDF7C0F800283ED04FF0FF3070
:1055D000002858D1A07AB8B160685FFA89F11FFA43
:1055E00088F243891144994299FA89F14FEA1141AD
:1055F000ADF81A1008D821680078097E02220DF152
:105600001A03FDF7A1F880B14FF0FF30D8BB1FFAA5
:1056100088F228465946FAF76FFF002841D1C14465
:105620001FFA89F0B842A5D31FE0D4E900105FFA51
:1056300088F20078497D5B46FDF754F8002818BFD2
:105640004FF0FF300028E2D01DE0D4E900105FFAEF
:1056500088F20078497D2B46FDF776F8002818BFC0
:105660004FF0FF300028B5D00DE09AFA9AF0ADF86F
:105670001A00D4E900100DF11A030078897E022285
:10568000FDF762F820B14FF0FF3007B0BDE8F08FB2
:10569000012084F825000198E084002007B0BDE8CF
:1056A000F08F6FF0010007B0BDE8F08F70B582B0E9
:1056B000282802D94FF0FF34E5E040F2680504469F
:1056C000C2F20005002842D095F8230001281DD021
:1056D000A87C95F822103222002808BF30228DF8CD
:1056E000032029B19DF8030040F080008DF80300ED
:1056F000D5E900100DF103030078097D0122012690
:10570000FDF722F8002808BF85F823602020012C2F
:105710008DF800004CD1A87A002100288DF80110E6
:1057200000F09680E87A062106288DF8041000F033
:105730008F80D5E9001001AB007889780122FDF750
:1057400003F8002840F084809DF804007FE095F87D
:105750002300E8B1A87C95F82210002818BF01208A
:1057600040008DF8020029B19DF8020040F0800051
:105770008DF80200D5E900100DF102030078097DD3
:105780000122FCF7E1FF002804BF002085F8230078
:105790004FF4E060ADF80000D5E900106B460078EA
:1057A000897C0222FCF7D0FFB8B34FF0FF346AE0E7
:1057B000052C18D8A87A012100288DF8011047D0AF
:1057C000E87A062106288DF8051041D0D5E90010A9
:1057D0000DF10503007889780122FCF7B5FFB8BB0D
:1057E0009DF8050033E0142C1AD8A87A02218DF810
:1057F000011068B3E87A052105288DF8061027D036
:10580000D5E900100DF10603007889780122FCF734
:105810009BFFE8B99DF8060019E000242C7532E0E2
:10582000A87A03218DF8011090B1E87A04210428A8
:105830008DF807100CD0D5E900100DF107030078A2
:1058400089780122FCF780FF10B99DF80700E87203
:105850009DF801006B46800107308DF80100D5E905
:10586000001002220078897CFCF76EFF10B14FF027
:10587000FF3408E00820A8720120002428750020C9
:105880002C73FFF799FB204602B070BD2DE9F04163
:1058900082B040F26807C2F200070E4697F8241063
:1058A00005464FF0FF30E1B3B97AD1B3D7E9001024
:1058B00014460078897A0DF106030222FCF712FFE4
:1058C00028BBBDF8060001BAB5EB114F02D9002084
:1058D00020701CE0796890FA90F84A88B8EB520F73
:1058E0000CD93A680878517C0DF106030122FCF7C7
:1058F000F9FE60B99DF80600C00615D4D7E900107E
:10590000EAB20078C97A3346FCF7ECFE20B14FF0DA
:10591000FF3002B0BDE8F081B8FBF5F0013820702F
:10592000002002B0BDE8F08100F006F86FF0010041
:1059300002B0BDE8F081000010B582B040F268040A
:10594000C2F20004A07A00B300208DF80700D4E969
:1059500000100DF107030078C97B0122FCF7F4FE6B
:1059600098B9D4E900100DF10703007849790122B4
:10597000FCF7EAFE48B9D4E900100DF107030078FE
:1059800009790122FCF7E0FE18B14FF0FF3002B0B8
:1059900010BD94F82400002845D00C208DF8070095
:1059A000D4E900100DF10703007809790122FCF712
:1059B000CBFE0028E9D13220FEF768F9A07A0DF17C
:1059C0000703C0076FF01F0008BF6FF03F008DF89E
:1059D0000700D4E90010012200780979FCF7B4FE31
:1059E0000028D2D1607C0DF10703002818BF0120E8
:1059F00040008DF80700D4E9001001220078C97B2F
:105A0000FCF7A2FE0028C0D100208DF80700D4E9E1
:105A100000100DF10703007849790122FCF794FE8C
:105A20000028B2D145E004208DF80700D4E9001029
:105A30000DF10703007809790122FCF785FE0028A3
:105A4000A3D1A07AA17CC0074FF0600008BF40201E
:105A5000002918BF40208DF80700D4E900100DF18F
:105A60000703007809790122FCF76EFE00288CD12B
:105A70003220FEF70BF9607C0DF10703002818BFF8
:105A800001208DF80700D4E9001001220078C97BBD
:105A9000FCF75AFE00287FF478AFD4E9001004F137
:105AA0001003007849790122FCF74EFE00287FF4AC
:105AB0006CAF002002B010BD2DE9F04F97B040F25E
:105AC0006806C2F2000696F824800D46B8F1000F71
:105AD000074602D0002000F0FDFA307A032808D8EB
